:020000040FE10A
:10080000081000205F2FE10F5D2FE10F1530E10F81
:100810005D2FE10F5D2FE10F5D2FE10F5D2FE10FE8
:100820005D2FE10F5D2FE10FD43BE10F5D2FE10F55
:100830005D2FE10F843BE10F5D2FE10F5D2FE10F95
:100840005D2FE10F5D2FE10F5D2FE10F5D2FE10FB8
:100850005D2FE10F5D2FE10F5D2FE10F5D2FE10FA8
:100860005D2FE10F5D2FE10F5D2FE10F5D2FE10F98
:100870005D2FE10F5D2FE10F5D2FE10F5D2FE10F88
:100880005D2FE10F5D2FE10F5D2FE10F5D2FE10F78
:100890005D2FE10F5D2FE10F5D2FE10F5D2FE10F68
:1008A0005D2FE10F5D2FE10F5D2FE10F5D2FE10F58
:1008B0005D2FE10F5D2FE10F5D2FE10F5D2FE10F48
:1008C0005D2FE10F5D2FE10F5D2FE10F5D2FE10F38
:1008D0005D2FE10F5D2FE10F5D2FE10F5D2FE10F28
:1008E0005D2FE10F5D2FE10F0348044B834202D0DF
:1008F000034B03B1184770476810002068100020B0
:10090000000000000548064B1B1AD90F01EBA3019C
:10091000491002D0034B03B11847704768100020FC
:10092000681000200000000010B5064C237843B981
:10093000FFF7DAFF044B13B10448AFF30080012343
:10094000237010BDD210002000000000B43DE10F64
:1009500008B5054B1BB105490548AFF30080BDE85C
:100960000840FFF7CFBF00BF000000006810002064
:10097000B43DE10F064B0748DA1C121AC11E22F0E3
:100980000302994288BF0022034903F03AB800BF2E
:100990006810002008100020C03DE10F064B0748FA
:1009A000DA1C121AC11E22F00302994288BF0022EB
:1009B000002103F044B800BF581300206810002045
:1009C000044B054A9A60D3F8882042F47002C3F8B9
:1009D0008820704700ED00E00008E10F38B5134BA8
:1009E000D3F828381A69546BA242054601D3012076
:1009F00038BD5B69A342FAD9204600F0ABFA002863
:100A0000F5D0236913F0FE000ED16A68236A9A427A
:100A1000EED9102204F1280105F10C0002F0FFFFCD
:100A2000B0FA80F04009E3E70020E1E70000E10FC1
:100A3000024A00231370024A13707047D41000203A
:100A4000D310002038B50378042B04460D463FD060
:100A500009D8012B0BD0032B4FF018033CD040F6E4
:100A600003102B7038BD182B36D0432BF4E7224BE4
:100A70004278197801BB012A03D0152340F60410EF
:100A8000EFE71A70A3781344FF2BF6D100228021E0
:100A9000E01C02F017FD94F88320C0F30F239A4264
:100AA00021D194F88430C0B2834220D1134B6278B4
:100AB0001A7000200623D4E7104B1B7893420ED007
:100AC0000133DBB29342DDD0152340F60510C8E7B1
:100AD000062340F60710C4E740F60810C1E70623D6
:100AE00040F60610BDE7152340F60210B9E71523BE
:100AF00040F60110B5E700BFD3100020D41000204D
:100B00000149024800F03AB8A03AE10F80100020F5
:100B100010B592B018494722684602F072FF00F003
:100B2000BDFAC0F30363092B8CBF373330330A227D
:100B30008DF81430C0F30343B3FBF2F102FB113321
:100B4000303300F00F008DF81730B0FBF2F302FBEA
:100B5000130001F13004303003F130018DF8191029
:100B60008DF81A000122472168468DF8164000F0E2
:100B700089FC002012B010BDB03AE10F2DE9F04F12
:100B80000024F9B094220646884653A821468DF8E1
:100B90000F4002F054FF2146482205A802F04FFF03
:100BA0002146682217A802F04AFF00F063FBDFF835
:100BB0001093DFF810A3DFF810B33C2701254FF0A6
:100BC000FF346B1E052B09D8DFE813F00C001E0064
:100BD00041005B005401C0000425F2E7FFF798FFD5
:100BE0000125EEE74FF47A7104A802F0E7FA38B96C
:100BF0009DF81030312B05D0322B0CBF0525002578
:100C00003C27DEE70225FBE701221121A94800F07D
:100C100039FC28220021304602F011FF202317AAB8
:100C200005A953A802F010FC0025FF2373700121D1
:100C30000520758000F04CFB00F070FC18B101211C
:100C4000284600F0E1FCFFF7F3FE0325B9E7432057
:100C500002F095F900214FF47A7000F039FB00F0B2
:100C60005DFC18B900F058FB0028F8D000F056FCE5
:100C70000028B1D1013FA4D1182002F080F900254D
:100C80009FE7002185220DF1C50002F0D8FE00216A
:100C900040F6B83000F01CFB00F040FC88B34FF485
:100CA0007A7300930123194604AA0DF1C50000F0E0
:100CB00059FC9DF8C530012B0DD140F6B832009299
:100CC000842104AA0DF1C60000F04CFC049B842B87
:100CD00004461AD1D8B90DF10F010DF1C500FFF787
:100CE000B1FE40F60713984204461AD1B378A3B177
:100CF000F37893B106259DF80F00182808BF062544
:100D000008E000F009FB0028C6D040F2047415206A
:100D10008DF80F0002F033F953E718238DF80F30E8
:100D2000E8E70028E7D19DF8C530012BE3D1CDF8E5
:100D30000080802332AA314653A800F09FFE04466B
:100D40000028D8D018238DF80F30D4E701210020D7
:100D500000F05AFC01210A2000F0BAFA9DF80F3089
:100D6000062B4FF0010208D140F607139C4204D134
:100D700051481B2100F086FB81E71A21504600F004
:100D800081FBA4F51063B3F5E06F4FF0010213D2BD
:100D90004A48112100F076FB40F606139C4213DC12
:100DA000B4F5106F10D0A4F60213042B4ED8DFE870
:100DB00003F04F474B5153001021584600F062FB9F
:100DC00040F606139C421ADC9DF80F309F2B4FEA29
:100DD00013108CBF3730303000F08CFB9DF80F00C3
:100DE00000F00F0009288CBF3730303000F082FB54
:100DF0000D2000F07FFB0A2000F07CFB3FE7A4F50C
:100E00008053013B092BDFD8A4F58053013B092B0C
:100E1000DAD801A252F823F06D0EE10FC90DE10FEF
:100E2000C90DE10F710EE10F610EE10F690EE10FC7
:100E30006D0EE10F650EE10F5D0EE10F6D0EE10F1E
:100E400021238DF80F30BFE72223FAE72323F8E7A9
:100E50002423F6E72523F4E72723F2E74123F0E7ED
:100E60004323EEE74423ECE74523EAE74F23E8E793
:100E70005023E6E7B378BBB1F378ABB133789B0787
:100E80000DD5756800F00AF9854204D9716A4FF4EE
:100E9000004000F0F3F80122132148466AE740F2CF
:100EA000012000F0B3F9F6E740F2032000F0AEF9BC
:100EB000E5E600BF603BE10F453BE10F1A3BE10F68
:100EC000F73AE10F2B3BE10F0A3BE10F70B4084DFD
:100ED000D5F828582E698642034606D86C69134413
:100EE0009C4202D370BC02F05BB870BC704700BF7C
:100EF0000000E10F37B51446144A936A0D4619688D
:100F0000134B994220D100F5004310F5004F019397
:100F10001AD2019BB3F5802F16D2019BC3F5802313
:100F2000A34211D340B9D2F828385A69B2F5004F1C
:100F300002D9186902F0F8F801982246294603B050
:100F4000BDE8304002F02CB803B030BD0000E10F26
:100F5000AD1007B0F0B5421ED11C85B0034618D8BD
:100F60000D4C6E4604F1100720686168354603C5D4
:100F70000834BC422E46F7D104A90F3311F8014DB5
:100F800012F8010F844204D19A42F7D1012005B032
:100F9000F0BD0020FBE700BF713BE10FF0B5036837
:100FA00003F16043B3F5004F9FB004465DD8314A6A
:100FB0004368D2F8282816699E4256D8B3F5802F88
:100FC00053D8456B06F14003AB4250D8B5F5802F9E
:100FD0004DD82846FFF7BEFF002848D0284602F02B
:100FE00001F880B16F6977B1022F0ED1AB69C4F1FE
:100FF000040119444FF0FF32204601F0C1F81E4BA6
:10100000C31A584258411FB0F0BD40F2046328464D
:101010000393FFF79FFF0028F5D0012F25D1AD697D
:10102000AE4222D8AC4220D8B5F5802F1DD804A8F6
:1010300002F086FA2A1B214604A802F08BFA04A8C3
:1010400002F08AFA01F0F6F8044601F0F7F82346B8
:10105000009005F12002294604A801F0ABF80390A6
:101060000398B0FA80F04009CDE70020CBE70120DB
:10107000C9E700BF0000E10FE320BBDE08B54FF079
:10108000FF3201F07DF8044B984203D140F2092071
:1010900000F0BCF8002008BDE320BBDE024BD3F813
:1010A00028389868704700BF0000E10F1C4B0122F0
:1010B00010B55A641A6842F480721A6003F54053FE
:1010C000D3F8A42142F4F842C3F8A4215B6801F0EC
:1010D00093FF00F079F801F04DFF01F04DFF18B1DA
:1010E0004FF4017000F092F8FFF70AFD044601F09A
:1010F00045FF34B940F2012000F088F84FF4017048
:1011000009E040F203739C42F4D0A4F20574012C70
:10111000F4D840F2032000F079F8002010BD00BFA1
:1011200000000E4013B501238DF806308DF807300E
:10113000224B5A68B2F5803F2CD100238DF807303E
:1011400000246368013307D14FF4027000F052F8B5
:101150008DF806408DF807409DF807305BB1002000
:10116000FFF71CFF8DF806009DF806301BB94FF401
:10117000027000F03FF89DF80630EBB1104AD2F84B
:10118000903043F00203C2F890300E4B002098607C
:1011900001F036FF5B685A05D2D500F055F8A0F291
:1011A000022080B20728CBD8C923C340DB07C7D5AC
:1011B00000238DF80630C1E702B010BD00500E408C
:1011C00000000E4000ED00E0024B4CF23C325A8031
:1011D000704700BF00000020054B5B8823F00F0321
:1011E0004AF6C0309BB21B1A58425841704700BFA4
:1011F00000000020044A08B51080FFF7EDFF10B989
:101200004FF20F03538008BD0000002008B5FFF720
:10121000F1FF0A4A136823F4E06343F40073136098
:10122000BFF34F8F0649074BCA6802F4E0621343CD
:10123000CB60BFF34F8F00BFFDE700BF00500E40F3
:1012400000ED00E00400FA05094B5A884FF20F0147
:101250008A4201D1188870473AB91B88012B40F2A5
:10126000022018BF4FF4007070474FF400707047B1
:10127000000000201FB5134B1A6842F480121A6058
:10128000D3F8C02042F00102C3F8C02000F0DCF91E
:101290004FF47A23B0FBF3F00B4B0E2218600021C1
:1012A0000DF1010002F0CBFB01238DF8003007485F
:1012B0000A2369468DF8023002F095FA05B05DF810
:1012C00004FB00BF00400E40A81000200080014039
:1012D00030B50D4D0D4A2D68536A15FB00F59CB2D3
:1012E00015FA83F00A4B80B21880A042094B2CBF3C
:1012F000002401241C7011B1536A8342FCD10123E4
:101300005361936130BD00BFA810002000800140F0
:10131000D0100020D5100020094B0A4AD868127856
:1013200000F001000AB108B9704738B9586A064B95
:101330001B88984234BF002001207047012070476D
:1013400000800140D5100020D010002070B5394E2B
:10135000394A3368394D3A4803F1340191601C33FE
:1013600001216B606B6201F09DFC3648012101F0A8
:1013700099FC01214FF48A4001F094FC706801212E
:1013800001F090FC3368304940F6AA620024DA602C
:1013900041F205021C605C665A609C605C61DC6422
:1013A00099645C679C67DC675A601A681A6000F091
:1013B0004BF900F5E1434FF4E1125B01B3FBF2F3AB
:1013C000224A203B02EAC303326821465361204689
:1013D0000123042201F0ACFC01231A4619462046E1
:1013E00001F0A6FC3368032205219C675A67D96087
:1013F000174B4FF0E06119604FF440211C62DC6232
:101400005C63DC66C3F880100131C3F88840C3F820
:101410008440C3F89850C3F8B0100E49C3F8B840E0
:10142000C3F8B4408A620122DA6303F1C063022286
:101430009A6070BD5810002048100020081000204D
:101440004041050000250A00F9FF0100F8FF7F0078
:1014500000200E4000200E44084B986A10F0020055
:1014600006D003F1806302221A629A62012070475B
:101470001B6A9B07FBD4024B0222F6E700200E40BA
:1014800000200E447F2938B50446154624D8FFF7BE
:10149000E3FF20B3134B2046621890420DD1124B4C
:1014A0001A88013961F30E121A80104AC2F8C83046
:1014B0000223D36335B9002038BD10F8014B03F87F
:1014C000014BEAE7FFF7C8FF0028FBD0084B1A687A
:1014D00013699B06FCD5EEE741F20310ECE741F2FD
:1014E0000620E9E7D61000204810002000200E401A
:1014F0005810002008B50146FFF7AEFF0028FBD0CA
:10150000054B1B681A695006FCD559631A69920687
:10151000FCD5002008BD00BF581000200E4B0F4A1C
:10152000D3F89430106840F20112934205D190B183
:101530000023C0F500701844704740F20222934225
:1015400016BF074A4FF480739B1A984202D0F0D21C
:10155000181A70470020704700200E40AC10002081
:10156000561100202DE9F047089D04460E46174607
:10157000E3B9FFF7D3FFB04228BF30461F4ADFF878
:1015800084C01F490546234620184FF0010E4FF036
:1015900000084FF0020983421AD107B13D6041F2C1
:1015A0000420AE4298BF0020BDE8F0872DB1FFF7C0
:1015B00061FE00212846FFF78BFEFFF7AFFFB04228
:1015C000D7D2002DF9D0FFF7A7FE0028F5D0D0E73D
:1015D00014681CF804A003F801AB0134B4F5007FD3
:1015E000146004D1C2F80080C1F80890D3E7B4F5C4
:1015F000807F08BFC1F808E0CDE700BFAC10002035
:1016000000200E465611002010B10B4B02221A6228
:1016100079B1094A094901231362936202F17C42BC
:101620000020C2F8981006490860D363054B0222D7
:101630009A600020704700BF00200E440810002070
:10164000AC10002000200E4630B51B4B87B001AA1D
:1016500003F1100518685968144603C40833AB42F7
:101660002246F7D11B78154A2370D2F8943003F044
:101670000703022B1BD01369C3F30443102B18D8A4
:1016800018336B440E4913F8143C4B430D498B42FD
:1016900003D11269C2F34162D340084AD2F8000173
:1016A000C0F304200130B3FBF0F007B030BD064BAF
:1016B000F3E7064BF1E700BF1C3CE10F00400E4092
:1016C00040420F0000093D0000F04902C0EA21013C
:1016D0002DE9F74FDFF8E09099F804408442054681
:1016E0008846924664D2D9F808301F6E314B2744A1
:1016F000041B9442D3F8283828BF14463E1A1B69AD
:10170000019331462246404602F07BF9019B06EBED
:10171000040B191D8B4518D31C33B34215D98E42C7
:101720003246A5EB070038BF0A46C1F168011044F4
:1017300011449B4594BFC2EB0B02C2EB0302D9F8E4
:1017400008304044194402F05CF948F203039B4519
:1017500003D948F207039E4210D92D1B544509D2E4
:1017600099F80410491BAAEB0402494408EB040051
:1017700002F047F9002003B0BDE8F08F48F20403FF
:101780009E42324638BF1A46E81BD9F80830A2F507
:10179000FF41104448F208060439B34594BFC2EB38
:1017A0000B02C2EB06021944404402F02AF9D4E7C6
:1017B0000024D3E70000E10FB01000202DE9F04332
:1017C000294C0746207989B00E46D0B1C0F10405F6
:1017D0008D4228BF0D462A463946204402F011F9B1
:1017E00022792A44D2B2042A22710BD1E368A0687C
:1017F000214600F0EFF80023237118B109B0BDE8CD
:10180000F0830546A6EB050838F003081DD020221A
:101810000021684602F013F9B8F1200FC14628BF35
:101820004FF0200979194A46684602F0EAF8E36861
:10183000A0684A46694600F0CDF84D44A8EB090877
:101840000028DBD1B8F1000FE6D1B54201D300206A
:10185000D4E7761B0023044823603246791902F04E
:10186000D0F82671F3E700BFB0100020084B10B588
:10187000202204460021184602F0E1F8012284608B
:101880004271BDE810400349103001F0A1BC00BF17
:10189000B0100020D116E10F30B40546586878B179
:1018A000084C607920B10020607108682866042027
:1018B000E360121A014430BC034B044801F096BCAB
:1018C00030BC7047B0100020BD17E10FC0100020E1
:1018D0004B6810B50BB9002010BD0B4C207968B1D6
:1018E000C0F10402FF21204402F0A9F8E368A068D7
:1018F0000422214600F06EF800232371A37E1E2BE4
:10190000E9D041F20230E7E7B01000200068024B56
:10191000C31A584258417047FD0505FD034A044B60
:1019200090420CBF18460020704700BFFD0505FD22
:10193000303CE10F074930B5024600230C2505FB7A
:1019400003F460180C59944203D001330B2BF6D1E9
:10195000002030BD443CE10FF0B587B000230827DC
:10196000CDE9013315463B46009704AA044601F031
:10197000EAFC41F203039842064623D194F843302F
:1019800053B1E06C3A4604A901F0E4FD04AAA06C4E
:101990003B46114601F0C3FD059A6A6094F8432066
:1019A000049B2B6052B9094A934207D0084A9342DC
:1019B00004D0E06C082204A901F0CCFD6B6823651B
:1019C00000236365304607B0F0BD00BFF70A0AF791
:1019D000FC0404FC2DE9F04799465B6804460F4679
:1019E0009046002B41D08B0742D1234B006ED3F899
:1019F00028381B6981181D1DA9421BD31C3398422E
:101A000018D2A842024638BF2A46101A3E18C5F11D
:101A10006800994294BFC2EB010AC2EB030A10446A
:101A200031465246204401F0ECFF5246FF21304639
:101A300002F005F8226E48F204039A420CD802EB39
:101A4000080048F20701884206D99B1AFA58C4F8E0
:101A500080204FF0FF32FA50D9E90035206E42461F
:101A60003946A847236E434423660020BDE8F0872B
:101A700041F20200FAE700BF0000E10F2DE9F04F4C
:101A8000A7B0CDE913230593309D002304460E46ED
:101A900015934FF00109159A059B9A4201D3002036
:101AA000D2E094F84630112BF6D8DFE813F062004C
:101AB000B2005C00420029003701C4012900BC01CA
:101AC0002900BC01E102610312002D01AB023B02BF
:101AD0005F030027636D0F2B49D81023009316AACC
:101AE0004023CDE9019713A9204601F02CFC0A9070
:101AF0000A9A41F203039A4200F0F8800A9B44E0FC
:101B00004FF00108D4E914739F4230D9FF1ADDE980
:101B100014329B1A94F84020032F134440F28F8113
:101B2000032B00F2A38113A9204601F0EBFB002355
:101B30002BE0AD4FDFF8BC82636D072B00F2FB801A
:101B40000823009316AA4023CDE9019913A9204642
:101B500001F0F9FB0C900C9A41F203039A4200F059
:101B60001F810C9B11E00027636D072B22D90123F5
:101B70005EE116AA13A92046FFF7EEFE0790079B29
:101B800041F20302934208D0079B0693069A41F262
:101B900003039A423FF47FAF55E0179A2265002273
:101BA00016996265914A914240F00B81022284F8B5
:101BB0004620EAE70823009316AA4023CDE90197BF
:101BC00013A9204601F0BFFB0890089A41F20303D5
:101BD0009A4201D0089BD8E7169B03F07F43B3F1EC
:101BE000407F05D0112384F8463041F20903CCE749
:101BF000179AD10742BF94F8423043F0010384F8AA
:101C00004230D305B0D4112384F8463041F20A03A0
:101C1000BBE716AA13A92046FFF79EFE0990DDF840
:101C2000248041F20303984511D0DDF82480CDF8DB
:101C30001880069A41F203039A423FF42CAF069BA8
:101C40000BB10023F370069827B0BDE8F08F16980B
:101C5000FFF770FE074628B9112384F8463041F299
:101C60000808E4E7437994F890209A4205D91123B3
:101C700084F8463041F20E08D9E701685C4A914287
:101C800005D00289D00748BF013384F8903094F81A
:101C90004230D9070DD53A8994F84330920706D5DA
:101CA0003BB1112384F8463041F20108BFE7002B15
:101CB000F7D016A8FFF72AFE18B93B7984F846300A
:101CC000B5E71698C4F88C00FFF728FE94F8423068
:101CD0009B06F2D50028F0D04368002BEDD02046BB
:101CE00098470990099B002BE7D0DDE7D4F848809E
:101CF00000F0A8FA8023CDE9000317AA01230221EE
:101D0000404601F0ECFBE5E6226DA26501230022CE
:101D100084F84330E26584F84630BCE600213C227A
:101D200017A8169101F08BFE0127D4E914329342D3
:101D300004D884F8467041F2030326E7009316AAFC
:101D40004023CDE9017713A9204601F0FCFA0B905E
:101D50000B9A41F203039A4201D00B9B15E706F15F
:101D6000080E0DF1580C73460DF17008624603CA57
:101D7000424518605960944603F10803F6D1106893
:101D80001860337843F0010333707046FEF726FE87
:101D90000028CAD1112384F8463041F20C03F4E63E
:101DA0003378179A43F002033370169B7360236DE8
:101DB000083B7362BB6A1968414505D1DB689342F1
:101DC00005D0112384F8463041F20103DDE60423F7
:101DD00084F8463094F8453043F0010384F84530E8
:101DE00000236366A8E600BF0000E10FEB17A6031F
:101DF000F90707F9AD1007B00423009316AA402392
:101E0000CDE9017713A9204601F09DFA0D900D9AB6
:101E100041F203039A4201D00D9BB6E6226D169B58
:101E2000042A01D923660127636D032BE4D9092312
:101E300084F846307FE70023636607236BE79F4201
:101E40003FF671AE9F4228BF1F46402316AACDE938
:101E50000188009713A9204601F075FA0E900E9A9A
:101E600041F203039A420AD00E9B8EE6402F28BF10
:101E700040279F4228BF1F4627F00307E5E794F855
:101E800046B0BBF1070F1BD0042FC7F1040A16ABF5
:101E900088BF4FF0000A5246FF21D81901F0CFFD4C
:101EA000BBF1090FBA4419D12B46524616A9204658
:101EB000FFF790FD0E900E9B002B3FF423AED3E76F
:101EC000D5F808A0BAF1000FDED02B68606E3A4654
:101ED00016A9D047636E3B44636613E6BBF1040F5B
:101EE0007FF410AE737898077FF50CAEEB68002B8B
:101EF0003FF408AE626E042A0BD80AEB0203062BED
:101F000007D917AB9B1A1A68C4F884204FF0FF3228
:101F10001A602B68EF68606E524616A9B847636E68
:101F20005344D9E794F8427017F0200707D0D4F84B
:101F30008C00FFF7F3FC074600283FF445AF4FF055
:101F4000010A44E05BB357B33B6943B3204698476B
:101F5000DDE914329B1A94F8402013448342FFF4C5
:101F6000E2ADD4E91421A2EB0108B8F1400F28BF7B
:101F70004FF04008984528BF984616AA4023CDE95F
:101F800001AACDF8008013A9204601F0DCF90F90DA
:101F90000F9A41F203039A4203D00F9BF5E501200B
:101FA000D6E794F84230990611D5002F3FF40CAFD4
:101FB000D7F808B0BBF1000F3FF406AF2B464246FE
:101FC00016A92046D8470F900F9B002BE5D1D4E9E6
:101FD000142194F84230914203F02003B2D3002B35
:101FE0003FF4C5AD002F3FF4C2ADFB68002B3FF4BA
:101FF000BEAD2946204698470F900F9B002B3FF41B
:10200000B6ADCAE794F84470002F7FF4B0AD40231A
:10201000009316AACDE9017713A9204601F093F9A0
:102020001090109A41F203039A4201D0109BACE544
:10203000E06C01F091FAD4F84C8000F0FBF8824695
:1020400000F0FCF8534600901EAA16A9404600F086
:10205000B1F81090109B33B11123F77084F846301B
:1020600041F2060391E50123F37084F844307EE5E4
:1020700000234FF00408CDE9013316AA4023CDF820
:10208000008013A9204601F05EF91190119A41F2E7
:1020900003039A4202D0119B0693D4E5D4F888201A
:1020A000354B9A4205D0112384F8463041F205039E
:1020B000F2E794F8443033B9F370112384F84630D2
:1020C00041F20603E8E7F378002B48D094F8453056
:1020D000DA0707D5EF682FB12B68424604F1840177
:1020E0004046B84794F845309B0707D5EF682FB1B5
:1020F00004222B6804F184011046B847236E73B3A1
:102100006F6867B304F180084FF0FF330422414643
:1021100012A8129301F083FC28B12B6804224146D7
:1021200048F20400B84704F168090422494612A89D
:1021300001F075FC98B1114BD3F82838D3F8108012
:102140001422D5E9003704F16C0108F10800B84702
:102150000422D5E90037494608EB0200B8470123BD
:10216000B3700C2384F84630002395E70023F37006
:1021700041F2070068E500BFE320BBDE0000E10F8D
:1021800010B50A4CD4F8B03043F02003C4F8B03096
:10219000074B01241C6001449A605C60884201D1B5
:1021A000D86910BD10F8012B9A61F7E700400E4086
:1021B00000C001402DE9F041A2B00E46DDF8A0803C
:1021C00015461F46044670B369B362B35BB3B8F1FA
:1021D000000F28D01548012100F064FD40220021A5
:1021E00002A801F02CFC394602A801F0C7F912AF91
:1021F00041460AA801F0C2F940220021384601F008
:102200001EFC3146384601F0B9F929461AA801F0FA
:10221000B5F90748009702AB2022214600F0BAFA30
:1022200022B0BDE8F08140F20160F9E700150A0034
:1022300000000F40004870474A43E00F00487047D5
:102240006A43E00F004870478642E00F2DE9F041F5
:1022500004461D460F46904600211C22181D01F021
:10226000EEFB01232B6001F0B7F94146064604F569
:10227000807001F01EFA394604F5827004F5847707
:1022800001F017FA2946384601F013FA304601F0FA
:10229000A7F90D4E0D4B0E4A0E490F482365636991
:1022A000DB010BD501F098F929460446384601F0C8
:1022B00008FA2046BDE8F04101F092B92265616557
:1022C000A065E665EBE700BF3938010039398401C4
:1022D000D02484FC1C82FED88B1C81A02DE9F04FF9
:1022E0008DB0044617460D461E4601F075F904F5FB
:1022F000827805F1400B81465946404601F0D9F9F4
:1023000004F58673184604F5887A3946039301F07C
:10231000D0F907F12001504601F0CBF9484601F011
:102320005FF9414A2265414A62650127404AA26538
:10233000E76501F051F929460190404601F0B9F9ED
:1023400004F5847905F1200211464846029201F015
:10235000B0F95946504601F0ACF9019801F040F946
:102360003449216534496165A76501F035F904F503
:10237000807B824606F14001584601F0A2F904A98B
:10238000484601F09EF9504601F02AF901F024F97F
:10239000039B29468246184601F08BF9504601F00E
:1023A0001FF9264B2365264B63656FF42672A3F550
:1023B000FE231344A365E76501F00EF9029A054672
:1023C0001146404601F075F9284601F009F91D4B08
:1023D00023651D4B6365A76501F0FEF83146054690
:1023E000484601F06EF9284601F0FAF801F0F4F8D9
:1023F00004A90546404601F05CF9284601F0F0F8D2
:10240000124B2365124B6365A76501F0E5F806F1F1
:1024100020010446584601F054F9204601F0E0F846
:102420000DB0BDE8F08F00BF8AD11C81D91C83D1CB
:102430001C81E11CD01482CB1481E11C8CE11C8135
:102440001C84D91CE014D8141482E11C84D3148297
:10245000D11CE0142DE9F041044690B00F46244E03
:102460000521904601F09AF90023236023636363FA
:102470000FCE08AD0FC596E80F0085E80F0008AA3B
:102480006B4607F140012046FFF7E0FE01F0A4F89B
:1024900004F586760546694604F5827001F009F96F
:1024A0003946304601F005F907F1200104F588703E
:1024B00001F0FFF8284601F093F80E4B23650E4B10
:1024C00063650E4BA3650123E36501F085F808F110
:1024D0002001054604F5807001F0F3F841463046CE
:1024E00001F0EFF8284601F07BF810B0BDE8F0816C
:1024F000D43CE10F8AD11C81D91C83D11C81E11C01
:102500002DE9F04FA5B01D460446CDE9021205A8FD
:102510001C22002101F093FA4FF001082022002133
:10252000284605F12007CDF8108001F088FA202216
:102530000021384601F083FA05F1400318462022B5
:102540000021009301F07BFA0521204601F026F9D5
:102550000023236023636363039BDB69002B4FF03D
:10256000FF060BDB013E09D00399721106F01F0331
:1025700051F8222008FA03F31342F3D001F02CF8AB
:1025800004F58273394680461846019301F091F8AC
:10259000404601F025F8734B2365734B6365734B1D
:1025A000A36501F019F804F5807914A9804648461E
:1025B00001F087F8404601F013F801F00DF82946C4
:1025C0008046484601F075F8404601F009F8684B2E
:1025D0002365684B63654FF48673A36500F0FCFFC9
:1025E00004F5867882460CA9404601F06AF81CA9D9
:1025F000484601F066F8504600F0F2FF00F0ECFFAC
:102600008246DDE9001001F054F8504600F0E8FF82
:10261000594B23650123636500F0DEFF04F5847ADE
:1026200029468346504601F044F8584600F0D8FF4A
:10263000524A226502F1D94202F5DE1202F5956294
:102640006265A2F586120123A2F2BA42A265E36591
:1026500000F0C2FF1CA98346504601F02AF80CA9DD
:10266000404601F026F8584600F0BAFF444A226579
:10267000444A6265444AA26500F0AEFF294683469B
:1026800004F5887001F01DF8584600F0A9FF00F02D
:10269000A3FF39468346019801F00BF85046009994
:1026A00001F007F814A9404601F003F8584600F07D
:1026B00097FF364A2265364A626500F08DFF009921
:1026C0008246484600F0FDFF3946404600F0F9FFDB
:1026D000504600F085FF06F01F0101238B40721168
:1026E000039951F82220134211D0284600F037FFF9
:1026F00038B1384600F033FF18B1009800F02FFFD2
:1027000058B9029A2B4629462046FFF7E7FD013EBD
:10271000BFF434AF25B0BDE8F08F029BAC4603F1A7
:10272000200E18685968624603C208337345944600
:10273000F7D1BC4603F1200E18685968624603C2FF
:10274000083373459446F7D10DF1100EBEE80F0023
:1027500005F1400CACE80F009EE80F008CE80F007C
:10276000D5E700BF8AD11C81821CC00C0C0C010073
:10277000C00C0C83D91C83D88AD11C83DA0C811439
:102780008CE11CD01484E31482D11C01D81483D1B1
:102790001CC00C012DE9F04FBBB00F4604460021D0
:1027A00015460AA86022449E9A4601F048F9602224
:1027B000002122A801F043F9002F00F01981BAF19D
:1027C000000F00F01581002E00F01281002D40F363
:1027D0000F810023236023636363636843F0100366
:1027E00063600C21204600F0D9FF6368DFF820E227
:1027F00023F4406343F400636360636823F440732D
:1028000043F400736360BEE80F000DF1A80CACE860
:102810000F009EE80F008CE80F0000F0DDFE04F5CD
:10282000847983463146484604F5867800F041FFB6
:102830002AA9404600F03DFF584600F0D1FE6E4AFE
:102840002265012363656369DA0104D440F2026002
:102850003BB0BDE8F08F311F082351F8040F00286A
:1028600000F0BE8000F0B8FE06F1200B0190594642
:10287000484600F01EFF2AA9404600F01AFF0198C2
:1028800000F0AEFE01235C4A226563656369DB01EB
:10289000DCD506F11C02082352F8041F002900F0C1
:1028A000A3802022002132A801F0C9F8202DA8BF62
:1028B0002025013D013F25F0030303F594736B448C
:1028C00005F0030117F8012FC9008A4053F8601C76
:1028D000013D42EA010243F8602CECD200F07CFE9C
:1028E00032A90546484600F0E4FE284600F078FE8E
:1028F000424B236500F070FE04F58077054632A94F
:10290000384600F0DEFE284600F06AFE2AAA02AB36
:1029100059462046FFF79AFC00F05EFE04F5887BDE
:10292000054602A904F5827000F0C3FE32A958469C
:1029300000F0BFFE3146404600F0BBFE284600F0E6
:102940004FFE2F4B236503F1FA43A3F50063636544
:1029500000F042FE32A90546584600F0B2FE02A938
:10296000384600F0AEFE284600F03AFE25490AAB94
:1029700032AA2046FFF7C4FD22AB02AA51462046E8
:10298000FFF7BEFD0AAA11462046FFF763FD22AB02
:1029900019460AAA2046FFF7A1FC22AA11462046A2
:1029A000FFF758FD00F018FE0C210546204600F008
:1029B000F5FE22A9484600F07CFE3146404600F074
:1029C00078FE284600F00CFE0F4B23650F4B636525
:1029D000636913F0807F40F2046018BF002037E77E
:1029E000013B7FF43AAF31E7013B7FF455AF2DE770
:1029F00040F201602CE700BF3035DA1030D00C0116
:102A000030E11C84143DE10F3035DA14393801000F
:102A1000F43CE10F2DE9F34714460D46DDE90A9237
:102A20001F4600284DD14CB313683F2B2AD851685C
:102A300051B32549002F14BFB846884603F03F061E
:102A40001B19136022BF536801335360FEB93F2C3A
:102A50000ED9A30900932A463B464146002000F0C8
:102A600083F824F03F031D4404F03F0434B10026F2
:102A70002246294609EB060000F0C3FF002002B001
:102A8000BDE8F087B846D9E7DFF83C80D6E7C6F165
:102A9000400A5445ECD32946524609EB060000F0A3
:102AA000B0FF2644012300934A463B46414600209E
:102AB000A6F1400400F058F83F2C5544D6D9B8464A
:102AC000C7E70248DBE700BF943DE10F80AFFFFF9F
:102AD0002DE9F041146886B01E46E3008DF80F30F2
:102AE00063098DF80E30630B8DF80D30630D8DF892
:102AF0000C3053681746DA0002EB54728DF80B2045
:102B000004F03F045A09372C8DF80A204FEA53325B
:102B10004FEA535305468DF80920CDE9001794BFBD
:102B2000C4F13802C4F1780288468DF808300D49A6
:102B300003460020FFF76EFF08222B46CDE90087F1
:102B40000DEB02010020FFF765FF284605F1200389
:102B500050F8042B46F8042B9842F9D1002006B017
:102B6000BDE8F081543DE10F2DE9F04F99B00546E5
:102B7000884692461E4600F0D9F90446002D7ED1C3
:102B8000042303604560C5644368694623F44063D9
:102B90004360A8F10402056308F11C0345638846FD
:102BA00052F8040F00BA9A4241F8040BF8D100F031
:102BB00013FD4146054604F5827000F07AFD284673
:102BC00000F00EFD2F4B23654FF000090AF00307BC
:102BD000229B994527D1B30704F5807744D000F0B4
:102BE000FBFC41460546384600F06BFD284600F0E8
:102BF000F7FC08AD3246434603CBAB421060516050
:102C0000984602F10802F6D1204600F099F9331FE8
:102C10001C3653F8042F12BAB3421A60F9D10020BF
:102C200019B0BDE8F08F0AEB89156FB10DF1200ED8
:102C300005F1400B28686968F446ACE803000835E4
:102C40005D45E646F6D108AD00F0C6FC2946834650
:102C500004F5D27000F03DFD584600F0C1FC0A4A70
:102C6000226509F10109B3E700F0B6FC31460546DB
:102C7000384600F026FD284600F0B2FCC4E76FF0AD
:102C80007100CDE7888AC801070D8101044BD3F894
:102C90004421D20703D4D3F840211042FBD170471E
:102CA00000400E4038B5C0F30323013B092B11D877
:102CB000DFE803F0052710102B221D101511154D0C
:102CC000C0F3043405F1424505F5801504EBC50059
:102CD0008000016038BD104DC0F30434F2E70F4DA1
:102CE000C0F304344FF48030FFF7D0FFEAE7C0F3BD
:102CF00004340B4D1020F7E7C0F30434094D0120D4
:102D0000F2E7094DC0F30434DCE7084DC0F30434A6
:102D1000D8E700BF00400E4050410E40F0400E404A
:102D2000E8400E40E0400E40C0400E40B0400E4033
:102D300000EB4000F8B50D461F46040116463AB1B7
:102D4000154801238B402044C7B100F1C0600360E7
:102D5000072D4FF00F0114D8AB00104806FA03F20C
:102D60009940204400F030FD3EB90B4A0123AB40AE
:102D7000224477B102F1C0621360F8BD00F18060B7
:102D8000E5E7A5F108039B00054806FA03F2994020
:102D9000E7E702F18062EFE70CA0004004A00040EA
:102DA00008A00040234B41F671311A6C10B519642C
:102DB00021494C684968996841F0010199600121F5
:102DC0001861D960D9694C0792B209D5996821F088
:102DD000010199600AB100221A644FF0FF3010BD62
:102DE0000221D9601549D869C00700D569B9D869E9
:102DF00010F002000BD0996821F0010199600AB12E
:102E000000221A646FF00100E9E70139EBE741B9EC
:102E1000986820F00100986002B119646FF0020018
:102E2000DDE7996821F0010199600AB90020D6E731
:102E30001864FBE700000E4000300E4080969800BA
:102E40002DE9F04F02F16044B4F5004F03D94FF083
:102E5000FF30BDE8F08FDFF8C8C0DFF8C890DFF8BA
:102E6000C880302606FB00C64FF44014C6F88040E8
:102E70000024C6F88440C6F88840C6F89840264C1E
:102E800041F67135D4F840A02564A5684FF0010ED5
:102E900045F00105A5600EFA00F053B90422E26086
:102EA000A26822F00102A2601FFA8AF28ABB002007
:102EB000CFE701F50065216105EA0905C4F80CE0DA
:102EC0006D1AD4F81CB09D4228BF1D461BF0040F9C
:102ED0004FEA9507BBD1013F3F0147F06057C6F865
:102EE0008C700E4FC6F89020C6F89470DCF82070F5
:102EF0000743CCF820701027E760DCF828703842D0
:102F0000FBD0C8F828002944C8F820002A445B1BDD
:102F1000C3E72364CBE700BF00000E4018000E405B
:102F200000200E4000F8FFFF00200E44024B034833
:102F30000122C3F8042670470010C84300000F4068
:102F4000054B984201BF03F16E7303F588330022ED
:102F5000C3F80426704700BF00000F40FEE708B525
:102F6000FDF72EFDFEF7DEF8FDF704FDFDF716FD7B
:102F7000FEF79CF800F012B8FDF7CABD704710B517
:102F80000446FEF7B7FA182C07D12046FEF7B2FA2E
:102F90002046BDE81040FEF7ADBA10BDFEF7D6B929
:102FA000C0F30A032DE9F04105460F4616460BB95A
:102FB00000F0BAF805F5006424F4FF6424F0070477
:102FC00005EB0608A04507D83246394628460223B5
:102FD000BDE8F04100F0AFB8204600F0A5F804F5D8
:102FE0000064EFE7036913F0FE0F0CBF012000201F
:102FF00070474FF400407047002070470020704732
:1030000003461846016881F3088881F309884068FF
:103010008746FEE74FF40170FEF7F8B8B1F5BE7FC2
:1030200010B504460FD34FF4BE72002100F007FD27
:1030300004F5827204F1BC0104F128000023BDE80C
:10304000104000F001BA40F2052010BD13B504464F
:10305000009101462830FEF711FDC4F8780118B13F
:1030600041F20703984204D1A37823B1E07800F23B
:10307000022002B010BD40F20120FAE72DE9F04332
:1030800087B00DF108090446DDF838800E46174672
:103090000021102248461D4600F0D1FC0021C8F84E
:1030A00000101C22284600F0CAFC32463B46CDF8F0
:1030B0000090214604F12800FEF7E0FC23789A07EF
:1030C00044BF6268C8F80020DB0709D504F1080393
:1030D00004F1240253F8041B45F8041B9342F9D170
:1030E0002378002B40F2064018BF002007B0BDE84F
:1030F000F0834FF4BE70704713B504460B4610467C
:10310000A20753BF6FEA03434FF6FF7242EA03433D
:103110006FEA13430193042324F003010DEB030230
:10312000FFF78EFE02B010BD08B5FFF73BFEB0FA08
:1031300080F0400908BD072B2DE9F04105460E46F9
:1031400014461F4602D90020BDE8F08101214FF44A
:103150008A40FFF7A7FD0CB90120F5E744EA050313
:10316000DA07F0D4AB0726D531883A462846FFF770
:10317000C3FF0028E7D1023C032C05F1020506F14C
:1031800002060DD924F00308434632462946384644
:10319000FFF756FE0028D6D146444544A4EB080468
:1031A000002CD9D031883A462846FFF7A5FFB0FA5F
:1031B00080F04009C8E7032CE4D8F3E707B5012302
:1031C000009100221946FEF7CDF903B05DF804FB2B
:1031D00038B50D46044630B11022002100F02FFC16
:1031E000E560002038BD41F20130FBE72DE9F043F6
:1031F000044689B00E46904699460025454501D3C0
:1032000000200AE0A37A1E2B4BD009D80A2B2BD022
:10321000142B32D0B3B141F2023009B0BDE8F083D3
:10322000232B42D0282BF6D1725D63681344636070
:10323000735DFF2B13D03223A372A37A322B0ED1EE
:10324000002050E0725D12092260715D238101F05F
:103250000F0104310F2A616003D10A23A3720135E3
:10326000CCE742B91E23F9E7725D2368134423605B
:10327000735DFF2BF3D01423F0E72368A8EB050759
:103280009F4228BF1F4670193946C8472368013D31
:10329000DB1B23603D4493B91E23A3720028DED0BC
:1032A000BBE7735D23812323D8E7725D238943EA5B
:1032B000022323816368132BBDD12823CEE7002886
:1032C000BBD0AAE72089E368202F28BF20278742A8
:1032D00028BF07463A466946984739466846C84770
:1032E0006368DB1B6360676827B10028EAD00023AE
:1032F000A37292E7A772D1E7436D002B14BF0120A0
:103300000420704770B5D1E90152AA4205D290F865
:1033100040302B449B1A402B10D9002012E00A6841
:1033200090F84040D65C90F84120224402F03F02E1
:103330000133013486548B6080F840408B689D4295
:10334000EDD8012070BD2DE9F84317469E46D1E91E
:10335000012390F840C0089D9DF824909DF8288096
:10336000D21A6244954204460E460AD9FFF7CAFFB4
:10337000002867D1112384F8463041F20200BDE8ED
:10338000F883754555D8002394F840200AB19D4232
:1033900035D1D6E90121914201D29D4241D89D42C9
:1033A0004DD1D4F8882029463846FEF7E9FEC4F806
:1033B0008800B9F1000F04D0E06C2A46394600F0CD
:1033C000C9F894F84330B8F1000F06D08BB1A06C67
:1033D0002B463A46394600F0A2F894F8433043B100
:1033E000E36DA26D2B449342E36524BF002384F870
:1033F0004330636D2B44636541F20300BFE794F8EB
:103400004120A25CFA5494F84120013202F03F02BC
:1034100084F8412094F84020013A84F84020013398
:10342000B2E73268525CFA54B2680132B2600133DA
:10343000AFE741F20100112384F846309FE741F2E3
:103440000200F8E700209AE72DE9F04103F020039D
:10345000002504464FF0FF38C0E918550F461646C0
:10346000A0F8405080F84350A0F8445080F84650EF
:1034700080F84230C0F888801822FF21683000F0C0
:10348000DEFAC4E91276C4F88080C4F8848084F837
:1034900090502EB1304600F053F82846BDE8F08138
:1034A00041F20B00FAE749BA89B24840C0F303126F
:1034B000424013B283EA0233580100F4FF509BB23A
:1034C0005840704738B5044645181046AC4200D104
:1034D00038BD014614F8010BFFF7E5FFF6E7F8B534
:1034E000044616461D460F4600F0B1F9DDE9061206
:1034F000204600F0B0F90023636284F83870336826
:10350000C4F839307368C4F83D30B368C4F841304A
:103510002B0C6DBA84F84530A4F84650F8BD30B590
:1035200085B00D46194600F12803CDE901520093FC
:1035300000F1240200F1380300F0ABF905B030BD12
:1035400010B5044600F02BF820460021BDE81040DD
:1035500000F029B800F02CB8014600F036B8036836
:1035600053B91C2350F8042F0AB9043BFAD1002B9D
:10357000CCBF0020012070470020704738B52022C2
:1035800004460D46002100F05AFA05F12003601EA2
:1035900013F8012D00F8012FAB42F9D138BD682294
:1035A000002100F04CBA03460020C3E90000704738
:1035B00007B500F128030190009300F108030020F3
:1035C000FFF728FA03B05DF804FB02460B4600F152
:1035D00028010830FFF77CBAEFF3108072B670470D
:1035E00000B962B6704784B00B6800934B680193D2
:1035F0008B680293CB680393009B0360019B03607D
:10360000029B0360039B03600023009301930293DA
:10361000039304B0704730B5D1E90223D1E90054D7
:10362000056004600260036030BD30B50568046861
:1036300002680368C1E90054C1E9022330BD7FB5C7
:103640008A0704460B4610D06D4601F11006186833
:1036500059682A4603C20833B3421546F7D1694672
:103660002046FFF7D8FF04B070BD0091009904B068
:10367000BDE87040FFF7CFBF30B58B0785B00C4673
:1036800010D06946FFF7D1FF0D46234604AC2A4609
:1036900003CAA24218605960154603F10803F6D127
:1036A00005B030BD0091009905B0BDE83040FFF78E
:1036B000BCBF10B5FFF7AFFFBDE810401031FFF7FA
:1036C000AABF10B5FFF7B1FFBDE810401031FFF7FA
:1036D000ACBF10B5FFF79FFF0C461031FFF79BFF03
:1036E00004F12001FFF797FF04F13001BDE810401D
:1036F000FFF791BF00F1424303F58013102A10B584
:103700004FEA43130AD101221A6000F58870FFF7CF
:103710006AFF1031BDE81040FFF765BF00221A6054
:103720002430F7E7F0B50B46990789B004461546F3
:103730002DD0082A19D16D4603F110061868596872
:103740002A4603C20833B3421546F7D10822694618
:103750002046FFF7CFFF03226B460020013A186096
:1037600003F10403FAD209B0F0BD6E4603F120075D
:1037700018685968324603C20833BB421646F7D16F
:103780002A4669462046FFF7B5FF0722E4E7009383
:10379000009909B0BDE8F040FFF7ACBF436823F0E3
:1037A0001F030E290BD8DFE801F008080808080BF2
:1037B0000B0B080808080B0B0B00194341607047FE
:1037C000194341F01001F9E770B505460E4614465D
:1037D000FFF702FF2B685C4034405C402C60BDE882
:1037E0007040FFF7FDBE0A7810B50AB902234360A6
:1037F00000234362CB788C781B0443EA04634C7A41
:103800002343CC7943EA84230C7A43EA04234C789B
:1038100043EA84138C7A43EAC413CC7A43EA441310
:103820000C7B43EA04138C7B43EA84334C7B43EAEE
:10383000C4030C7943EA44334C79897943EA04732D
:1038400043EA417303600AB10123436010BD24229F
:10385000002100F0F4B870B515460E462422002170
:10386000044600F0ECF8C02D0DD0B5F5807F01D0F6
:10387000802D0BD12046EA0840F8045B314600F069
:10388000C0F8002070BD6FF07100FBE76FF01F0003
:10389000F8E72DE9F04F87B08B46029003939046EE
:1038A0007AB11568029B1B68802B0CD100265E45FF
:1038B0000FD3B8F1000F40F0A180002007B0BDE8A1
:1038C000F08F1546EEE7B3F5807FEFD06FF0200064
:1038D000F4E75DB1119B109A9B5D525D5340129AC3
:1038E0000135935505F00F050136E0E7FFF71EFBA4
:1038F0004FF44043456003600446FFF76DFE0299B4
:1039000051F8043B802B074614BF102208222046A2
:10391000FFF708FF04F18403184603990193FFF7AA
:103920008EFE3846FFF75CFE119BABEB060703EB00
:103930000609129B27F00F0703EB060A09EB0703A2
:103940000593059989454FF005034FF0030219D1FE
:10395000119B3744DE19129B1F44119B03EB0B0A8A
:10396000032356452AD1FFF737FE039906460198EF
:10397000FFF782FE3046FFF733FE2046FFF7E0FAFE
:103980005E4694E74821A160A36021698907FCD4C1
:10399000A260FFF721FE4946049004F1A000FFF762
:1039A0004EFE514604F18000FFF766FE0498FFF7D3
:1039B00017FE09F110090AF1100AC2E79DB9482261
:1039C000A2600522A26022699207FCD4A360FFF7DF
:1039D00003FE1099814604F18000FFF74DFE484632
:1039E000FFF7FEFD0323109916F8012B495D013501
:1039F0004A4007F8012B05F00F05B2E7C8F8005060
:103A00005BE70A44914200F1FF3300D1704710B5E3
:103A100011F8014B03F8014F9142F9D110BD10B5D7
:103A200001390244904201D1002005E0037811F8E9
:103A3000014FA34201D0181B10BD0130F2E7024430
:103A40000346934200D1704703F8011BF9E70000D9
:103A50000000000000000000000000000000000066
:103A6000F8B500BFF8BC08BC9E467047F8B500BF6B
:103A7000F8BC08BC9E467047000000000000000033
:103A80000000000000000000000000000000000036
:103A90000000000000000000000000000000000026
:103AA00000000000CD0EE10F00000000F50EE10F58
:103AB0000D0A476D636B6F20426F6F746C6F6164AA
:103AC00065722076582E59592E5A5A0D0A312E20D9
:103AD00075706C6F61642067626C0D0A322E207203
:103AE000756E0D0A332E2065626C20696E666F0D4F
:103AF0000A424C203E20000D0A4661696C65642034
:103B0000746F20626F6F740D0A000D0A66696C6530
:103B1000206572726F72203078000D0A626C6F63DC
:103B20006B206572726F72203078000D0A536572D7
:103B300069616C2075706C6F61642061626F727472
:103B400065640D0A000D0A53657269616C20757019
:103B50006C6F616420636F6D706C6574650D0A0035
:103B60000D0A626567696E2075706C6F61640D0A7D
:103B700000B814B6F1E0CFF3ADB7DD25C9FA79B7D7
:103B80001300000013B779FAC925DDB7ADF3CFE014
:103B9000F1B614B801020000000000002036000059
:103BA00040000000010004020000000000000000CE
:103BB0000000000000000000000000000000000005
:103BC00000000000000000000000000000000000F5
:103BD0000000000007B0CD5E0200000001000402FA
:103BE000243600000000000000000400F100100076
:103BF000F92FE10FFD2FE10F9D0FE10F1D30E10FB8
:103C00004D30E10F000000007D30E10FF330E10F97
:103C10000000000000000000F32FE10F0400000787
:103C200000000D1013001A20263038404800000014
:103C3000FD0505FD6D18E10F9918E10FD118E10F91
:103C4000F932E10FEB17A6030201000003000000A8
:103C5000FA0606FA0D04000003000000F40A0AF454
:103C60000505000001000000F50909F50307000043
:103C700001000000F60808F6060800000000000039
:103C8000FE0101FE0808000000000000FD0303FD26
:103C90000A08000000000000FD0505FD10080000F6
:103CA00000000000F90707F90E09000002000000FB
:103CB000F70A0AF70F0B000003000000FC0404FCE5
:103CC0000B0C0000030000002000000000010000B9
:103CD000050C0000FFFFFFFFFFFFFFFFFFFFFFFFDF
:103CE00000000000000000000000000001000000D3
:103CF000FFFFFFFF512563FCC2CAB9F3849E17A7DB
:103D0000ADFAE6BCFFFFFFFFFFFFFFFF0000000072
:103D1000FFFFFFFF96C298D84539A1F4A033EB2DE1
:103D2000817D0377F240A463E5E6BCF847422CE1CD
:103D3000F2D1176BF551BF376840B6CBCE5E316B11
:103D40005733CE2B169E0F7C4AEBE78E9B7F1AFED5
:103D5000E242E34F8000000000000000000000008D
:103D60000000000000000000000000000000000053
:103D70000000000000000000000000000000000043
:103D80000000000000000000000000000000000033
:103D9000000000006A09E667BB67AE853C6EF372FF
:103DA000A54FF53A510E527F9B05688C1F83D9AB06
:043DB0005BE0CD19EE
:0C3DB400C03DE10F0810002018000000C6
:103DC000F00F100300000000561100201300000047
:103DD00009000000000100000202000013000000C2
:103DE000F00F100300000000561200201300000026
:103DF000090000000002000001010000D3FFFFFFE6
:103E0000F07F1030D61000200000000000000000FD
:103E100000000140003204005109E10F2909E10FBF
:040000050FE12F5F79
:00000001FF
