:10000000000500204D360000776702007767020088
:10001000236A0200776702007767020077670200B1
:10002000776702007767020077670200F10000003F
:1000300077670200ECB7020021010000E76B0200C5
:100040002D1F02003F8A02007767020077670200D7
:1000500085EF00004F8A02004B8A02007DF7000006
:10006000438A0200B1250200993800007767020038
:100070002D2502007767020077670200776702008C
:100080007767020077670200B538000077670200E3
:1000900077670200776702007767020077670200E0
:1000A0007767020077670200776702002966000021
:1000B000B1F70000478A0200EDE00000D1620000C5
:1000C000EDF7000077670200B1E0000077670200FB
:1000D00077670200776702007767020077670200A0
:1000E0007767020077670200000000000000000050
:1000F000074B19680868B0E8F04F80F30988BFF330
:100100006F8F4FF0000080F311887047AFF30080CD
:10011000281B00200000000000000000000000007C
:10012000EFF30980BFF36F8F154B1A681EF0100FA5
:1001300008BF20ED108A20E9F04F10602DE909007A
:100140004FF0200080F31188BFF34F8FBFF36F8F04
:1001500006F080FD4FF0000080F3118809BC19689B
:100160000868B0E8F04F1EF0100F08BFB0EC108A1E
:1001700080F30988BFF36F8F704700BFAFF3008033
:10018000281B00200000000000000000000000000C
:1001900001F0FF01102A2BDB10F0070F08D010F838
:1001A000013B013A8B422DD010F0070F42B3F6D13C
:1001B000F0B441EA012141EA014122F007047FF055
:1001C00000070023F0E80256083C85EA010586EAAC
:1001D000010685FA47F5A3FA87F586FA47F6A5FAE8
:1001E00087F68EB9EED1F0BC01F0FF0102F00702F4
:1001F00032B110F8013B013A83EA010313B1F8D19F
:100200000020704701387047002D06BF354603387F
:10021000073815F0010F07D1013015F4807F02BFB8
:10022000013015F4C03F0130F0BC0138704700BF09
:100230000348044B834202D0034B03B11847704775
:10024000A0080020A0080020000000000548064B80
:100250001B1AD90F01EBA301491002D0034B03B1C4
:1002600018477047A0080020A008002000000000E8
:1002700010B5064C237843B9FFF7DAFF044B13B1EE
:100280000448AFF300800123237010BD3C600020C0
:100290000000000030F8020008B5054B1BB105490D
:1002A0000548AFF30080BDE80840FFF7CFBF00BFAF
:1002B00000000000200B002030F80200A3F5803A77
:1002C000704700BF174B002B08BF134B9D46FFF72D
:1002D000F5FF00218B460F461348144A121A25F0E9
:1002E00039FB0E4B002B00D098470D4B002B00D054
:1002F00098470020002104000D000D48002802D07E
:100300000C48AFF3008000F029F82000290025F008
:10031000B4FE00F011F800BF00000800000000006B
:100320000000000000050020A0080020047F00203D
:10033000000000000000000008B5064B044613B1A1
:100340000021AFF30080044B1B6803B1984720469F
:1003500026F01FFA00000000700C002070B50D4D53
:100360000D4C641BA4100026A64209D10B4D0C4C69
:100370002BF006F9641BA4100026A64205D170BD1F
:1003800055F8043B98470136EEE755F8043B98478B
:100390000136F2E79808002098080020980800200D
:1003A0009C08002070B50F4E0C463168054611B907
:1003B00000F09EF830602146284600F099F8431C72
:1003C00003D14FF0FF34204670BDC41C24F0030459
:1003D000A042F8D0211A284600F08AF80130F2D164
:1003E000EFE700BF780C00202DE9F041CD1C25F08F
:1003F000030508350C2D38BF0C25002D064601DB02
:10040000A94204D90C2333600020BDE8F081314FAC
:1004100000F062F83B681C4644BB29463046FFF7B3
:10042000C1FF431C044650D13C682146002941D1FC
:10043000002C44D02368304604EB030800F058F841
:1004400080453CD121686D1A29463046FFF7AAFF46
:10045000013034D023682B4423603B68002B36D016
:100460005A68A24229D100225A600EE02268521B2B
:100470001DD40B2A16D96119A342256018BF5960F3
:10048000636808BF396062514B60304600F02AF85B
:1004900004F10B00231D20F00700C21AB5D01B1A6F
:1004A000A350B2E7A3426268DED13A60EDE723468B
:1004B0006468B1E70C464968B8E71346CEE70C23F9
:1004C0003360304600F00EF89EE70560DDE75B60C4
:1004D000FFDE00BF7C0C0020014825F043BA00BFBE
:1004E0003D600020014825F03EBA00BF3D6000207D
:1004F00038B5064D0023044608462B6003F088F902
:10050000431C02D12B6803B1236038BD740C00205A
:1005100038B50546002941D051F8043C0C1F002B8A
:10052000B8BFE418FFF7D8FF1D4A136833B96360FA
:1005300014602846BDE83840FFF7D4BFA34208D96D
:10054000206821188B4201BF19685B680918216077
:10055000EDE71A465B680BB1A342FAD9116850184F
:10056000A0420BD120680144501883421160E0D1B1
:1005700018685B68536008441060DAE702D90C23FE
:100580002B60D6E7206821188B4204BF19685B688E
:10059000636004BF091821605460CAE738BD00BF1A
:1005A0007C0C002037B5084D2B788342044608D0D8
:1005B00000210648009100680123042206F016FD80
:1005C0002C7003B030BD00BF17080020C80C0020FD
:1005D000014B1870704700BF1708002073B5134C0B
:1005E000A378032B20D80133A3706378AA2505FBD9
:1005F0000346A82AF070304628BFA8220530327181
:100600002AF00EFD63780A480133DBB2042B28BFC1
:10061000002300216370009100680123042206F08A
:10062000E5FC012002B070BD0020FBE7EB6200207A
:10063000C80C0020F7B5184C07460E46154606F0C4
:10064000CFFFA378032B23D80133A3706378AA21AB
:1006500001FB0340A82D2A4628BFA822027131467B
:10066000C77005302AF0DCFC63780133DBB2042B61
:1006700028BF0023637006F0C9FF002107480091DE
:1006800000680123042206F0B1FC012003B0F0BD94
:1006900006F0BCFF0020F9E740600020C80C0020F5
:1006A000034B04491B6808700122D87825F05DB916
:1006B000E0B502003E660020034B04491B68024679
:1006C000D87825F052B900BFE0B502009665002049
:1006D0001FB50378DB2B05D8D02B06D8C32B21D030
:1006E000C42B26D005B05DF804FBD13B0A2BF9D80A
:1006F00001A252F823F000BF7B070000E5060000CE
:10070000E5060000E5060000E5060000E50600003D
:1007100057070000E5060000E50600004B07000053
:100720003F07000001791C4805B05DF804EB29F093
:100730006CBE1A4805B05DF804EB29F057BE00798D
:1007400005B05DF804EB02F083B8007905B05DF800
:1007500004EB02F06DB8037A8DF80430B0F809307C
:100760005BBAADF806300C3010F8013C029001A8DD
:100770008DF80C3000F072FDB4E7B0F80B20B0F843
:100780000910007A52BA49BAD2B2C9B205B05DF8BE
:1007900004EB02F06DB800BFD40C0020CC0C00209C
:1007A00038B5044625F063FB06F086FB134D286040
:1007B00002F0F8FE204605F0D5FE11480FF0ECFBE4
:1007C0002968052005F0BAFD002022F07DF80D4BC8
:1007D0000021186022F09EF8012022F075F80A4BE3
:1007E0000021186022F096F805F0AEFE0020FFF719
:1007F000D9FE26F0A8F90028FBD138BDC80C00208E
:1008000050050020C40C0020C00C0020094A937839
:1008100073B1013B937013780133DBB2042B28BF13
:1008200000231370044B002201201A70FFF7BABE98
:100830005378F6E7EB6200203F660020094A937880
:1008400073B1013B937013780133DBB2042B28BFE3
:1008500000231370044B002201201A70FFF7A2BE80
:100860005378F6E7406000203F66002073B55E4B8A
:100870001C78052C41D8DFE804F00342787091A47D
:1008800005F0ACFE054605F0ADFE064602F08EFA18
:10089000564B574901221A70564A574B12781A7014
:1008A000564A12785A702A789A706A78DA70AA785A
:1008B0001A710A785A7152B149685D1D01390134C3
:1008C000E4B211F8010F05F8010FA242F7D1307A16
:1008D000911DA0F109046042C9B260410732585429
:1008E000D2B245490A20FFF779FE454A4548002122
:1008F00005F078FD012025F082FA01200FE0424A40
:10090000917889B11378AA2101FB0320002100917D
:1009100002460379C078053202F0B0F9042002B033
:10092000BDE87040FFF73EBE3848837873B1027867
:100930000091AA2303FB0205052413FB0242024493
:100940002B79E87802F09AF92046E8E7012002F0D6
:10095000A7FA012807D10320E1E72D4B186801F021
:100960009FFF0028C9D002B070BD002002F098FAA5
:10097000022803D1274B00221A70BEE70528F2D1C6
:10098000244A1378591C022B1170F3D800230093CA
:100990001A461946184602F071F9E4E7002002F001
:1009A0007FFA022804D102B0BDE87040FFF72EBFE5
:1009B0000528D8D1174A1378591C022B1170E5D994
:1009C000F1E7002002F06CFA022804D102B0BDE881
:1009D0007040FFF733BF0528C5D10E4A1378591C64
:1009E000022B1170D2D9F1E7170800203E600020D9
:1009F000500500203F60002096650020A966002079
:100A000069590200800C0020EB6200204060002049
:100A1000E0B502003F6600207FB5064605F0DEFD2A
:100A2000054605F0DFFD044602F044FC98B3AA1C1D
:100A3000691C284625F075FB2A484369019300F19B
:100A400010030093C368416800F1080225F0CEFB53
:100A500004F1080025F02BFC211DA01C25F090FCC2
:100A6000A01D25F0CDFC04F1090025F0FFFC1E4877
:100A700025F053FC26F04CF805F0BCFD1B4B1E7016
:100A800005F0B4FD012203460021194829F057F969
:100A9000002004B070BD0DF10F001FF0BFF89DF8ED
:100AA0000F30092B03D9A3F12002012A00D82372A9
:100AB000207A25F0E0FBB4F90410B4F9020025F027
:100AC00041FCAA786978287825F00AFBB4F9060079
:100AD00025F07AFC607A25F0ADFC012025F001FCC0
:100AE000C8E700BF50050020160800203F60002026
:100AF000A107000030B4154C20701548007802287A
:100B00001D4608BF0120CBB212BF0020090A617048
:100B1000C0F1A5010CBFA3706370CBB2AB4200F172
:100B2000020128BF2B4663540C44D1188A4207D1D6
:100B300003301A1830BC0549D2B24920FFF77ABDFC
:100B400012F8015B04F8015FF0E700BF9665002032
:100B5000160800202DE9F0470378812B054604D0C4
:100B6000822B00F09880BDE8F087DFF8448190F890
:100B7000CC3088F800304C4BB0F8D62093F8009079
:100B800090F8D600B5F8D43095F8D410B9F1020F2A
:100B900066D1120A1B0A88F8012088F8020088F83A
:100BA000033088F80410062795F8CB603F4BAA2E37
:100BB000C7F1A80428BFAA26E4B2A64228BF264649
:100BC0005FFA86FA03F807A0324605F1210108EB27
:100BD00007002AF025FA95F8CC301B0748D507EB1B
:100BE0000A04E4B2C4F1A803DBB21D2B3ED8C4F161
:100BF000A70414F0FF040CD03E44621E08F806203F
:100C00000136291D08EB06002AF00AFAA2445FFA11
:100C10008AF43B1995F8D82008F80320B9F1020F9F
:100C200015D1631C57FA83F395F8D92008F80320EF
:100C3000A31C57FA83F395F8DC2008F80320E31C83
:100C4000DCB257FA83F395F8DD2008F803207B1C0B
:100C5000E2181749BDE8F047D2B2A820FFF7EABC76
:100C600088F8010088F8021004279DE71E24C3E7D6
:100C7000B4429EBFC7F1A704E4B226463E44F6B292
:100C800088BF0AF1010A4FF0000308F8063088BF58
:100C90005FFA8AF4BDE7037AC18800F10902BDE872
:100CA000F0470079FFF726BF160800209565002061
:100CB0009665002038B5074D04462946064801F0E0
:100CC00005FEE078A5F108012822BDE8384024F0AF
:100CD0004CBE00BF200800209B59020008B5074BFE
:100CE000C2781A700844064B02791A700120FFF787
:100CF00059FC044B00221A7008BD00BFBE660020DC
:100D0000BF660020C066002008B505F049FC826976
:100D1000164B110E1970110C5970DA70110AC26954
:100D20009970110E1971110C5971DA71110A026A58
:100D30009971110E1972110C5972DA72110A426A04
:100D40009972110E1973110C5973DA73110A826AB0
:100D50009973110E1974110C5974110A9974DA747B
:100D6000BDE808401420FFF7A7BC00BF966500202F
:100D700008B505F015FC02680E4B120A1A700268DD
:100D80005A704268DA70110A826899705A71110AB1
:100D9000C2681971DA71110A026999715A72110ADD
:100DA00042691972110A9972DA72BDE808400C2082
:100DB000FFF782BC9665002010B5184B04791B78AC
:100DC000022BAAB028D1848864BAA4B201231844A3
:100DD000134B42791A7000212422684624F0BAFD90
:100DE0005D238DF80030ADF8044005F0D3FB002200
:100DF000694629F09DFB0021842209A824F0AAFD60
:100E0000DA2109A802F062FB08B19DF828002AB097
:100E1000BDE81040FFF744BC0023D8E716080020C7
:100E2000AE66002010B5ACB000238DF80730174B2C
:100E300004791B78022B08D19DF807308488013390
:100E400064BADBB2A4B28DF807302422002102A8D4
:100E500024F080FD4B238DF80830ADF8124005F0EA
:100E600099FB002202A929F063FB002184220BA830
:100E700024F070FDCB210BA802F028FB08B19DF8EF
:100E800030002CB0BDE81040FFF70ABC1608002067
:100E90002DE9F043214B05791B78214C022BABB097
:100EA00039D183885BBA9DB2C3F307232370657081
:100EB00001262422002106F10208684624F04AFD9A
:100EC00004EB080751238DF800300197ADF8085066
:100ED00005F060FB0022694629F02AFB00218422EC
:100EE00009A824F037FDCF2109A806F1010902F075
:100EF000EDFA40B1DDF8293044F808309DF82800BB
:100F00009DF82D303B7104F80900F01D2BB0BDE8B1
:100F1000F043FFF7D1BB25700026CAE71608002072
:100F20009665002070B5134B134D1B78022B0146BC
:100F300000791BD18B885BBA98B2C3F307232B705F
:100F400068700123002B4A780CBF082609269642B8
:100F500003F10104BABF0533C918002124F0D8FDFC
:100F600028550220BDE87040FFF7A6BB287000237B
:100F7000E8E700BF160800209665002030B5154B45
:100F80008279047945791A70ABB024220021684631
:100F900024F0E0FC53238DF800308DF80850ADF8B4
:100FA0000A4005F0F7FA4FF4FA72694629F0C0FAE0
:100FB0000021842209A824F0CDFCD22109A802F046
:100FC00085FA08B19DF828002BB0BDE83040FFF746
:100FD00067BB00BFAB6600200449054B48701B7817
:100FE0000B7002221220FFF7F9BA00BF96650020AD
:100FF000BD66002010B4234C6270234A2170127821
:10100000002A3DD0002B3BD01A680A21B2FBF1F236
:10101000120AA2701A68B2FBF1F2E2701A79227118
:101020005A7962719A79A271DA79E2711A7A227226
:101030005A7A62729A7AA272DA7AE2721A7B22730E
:101040005A7B62739A7BA273DA7BE2731A7C2274F6
:101050005A7C62749A7CA274DA7CE2741A7D2275DE
:101060005A7D62759A7DA275DA7DE2751A7E5B7E85
:10107000227663761A2203495DF8044BFFF7AEBA75
:101080000222F8E7966500203E6000200B460349E7
:10109000024609781320FFF7ADBF00BFBC660020F1
:1010A0000B46034902460978A920FFF7A3BF00BFFA
:1010B000BC6600200449054B48701B780B70022267
:1010C0001420FFF78BBA00BF96650020BB66002096
:1010D0000449054B48701B780B700222AB20FFF7C8
:1010E0007DBA00BF96650020BB6600200449054B11
:1010F00048701B780B7002224820FFF76FBA00BFC0
:1011000096650020B766002030B51F4B04791B7828
:10111000022BABB036D1848864BAA4B20123184440
:101120001A4A43791370002B4FF024024FF000014C
:101130006846174D08BF002524F00CFC74238DF879
:1011400000300195ADF8084005F024FA6946002208
:1011500029F0EEF9014658B9842209A824F0FAFBD7
:10116000E12109A802F0B2F910B19DF828301BB9AD
:1011700000212320FFF7BAFF01202BB0BDE830404B
:10118000FFF710BA0023CAE716080020B766002050
:10119000ED1000000449054B48701B780B700222CB
:1011A0006820FFF71BBA00BF96650020B6660020D6
:1011B00070B5214B04791B78022BAAB039D18488F1
:1011C00064BAA4B2012318441C4A83794679137087
:1011D000002B4FF024024FF000016846184D08BF65
:1011E000002524F0B7FB86238DF8003001958DF89B
:1011F0000860ADF80A4005F0CDF96946002229F0F3
:1012000097F9014658B9842209A824F0A3FBE221EA
:1012100009A802F05BF910B19DF828301BB9002134
:101220002320FFF7B7FF01202AB0BDE87040FFF789
:10123000B9B90023C7E700BF16080020B666002032
:1012400095110000034B04491B780B7001224220CA
:10125000FFF7C4B9B56600209665002030B41C4B7A
:101260001A78002A32D01B4B017819701A4B1B498F
:101270001A70027809785A704288194C022901BF05
:10128000120A9A704288DA7016BF9A700122002200
:10129000017AC2F1A403DBB2994288BF0372017ADA
:1012A000A15400250134017AEBB28B4208D30431FA
:1012B0000C4B0A4430BC08491878D2B2FFF78EB9FB
:1012C0004168C95C13440135E154ECE730BC704718
:1012D000BF660020C066002096650020160800202A
:1012E00099650020BE6600200449054B48701B78B4
:1012F0000B7002224520FFF771B900BF96650020F0
:10130000B46600200449054B48701B780B7002221C
:101310005720FFF763B900BF96650020B066002034
:101320000449054B48701B780B7002225420FFF7CC
:1013300055B900BF96650020AF6600200449054BF3
:1013400048701B780B700222A220FFF747B900BF3C
:1013500096650020AC6600200449054B48701B7858
:101360000B700222BE20FFF739B900BF966500203E
:10137000AA66002070B5194B04791B78022BBEB009
:1013800029D1848864BAA4B201231844144A837909
:1013900046791370002B4FF0F8024FF000016846B9
:1013A000104D08BF002524F0D5FA09238DF8003030
:1013B0000195ADF808408DF80A6005F0E5F80022C7
:1013C000694629F0B5F8B0FA80F040093EB0BDE8B2
:1013D0007040FFF765B90023D7E700BF160800206B
:1013E000BD660020D90F000010B5124A03791370B2
:1013F000114AC1781170BEB0002B4FF0F8024FF0C7
:10140000000168460D4C08BF002424F0A3FA08230D
:101410008DF80030019405F0B7F80022694629F0F4
:1014200087F8B0FA80F040093EB0BDE81040FFF701
:1014300037B900BFB9660020B8660020A5190000C2
:1014400070B51B4B06791B784479022BBEB02CD1AA
:101450008688C48876BA64BAB6B2A4B2023350FAA7
:1014600083F0144A03791370002B4FF0F8024FF009
:1014700000016846104D08BF002524F06BFA0E23CA
:101480008DF800300195ADF80860ADF80A4005F020
:101490007BF80022694629F04BF8B0FA80F0400949
:1014A0003EB0BDE87040FFF7FBB80023D6E700BFB1
:1014B00016080020B3660020791A00002DE9F043D9
:1014C000204B90F804801B784679022BBFB005466C
:1014D00035D1B0F80480C68898FA98F876BA1FFA21
:1014E00088F8B6B2E9181848CA7A91F80A900270DA
:1014F0000633002ADCB24FF0F8024FF000016846D4
:10150000124F08BF002724F025FA0E238DF8003073
:101510002B5903930197ADF80880ADF80A608DF858
:10152000109005F031F80022694629F001F8B0FA70
:1015300080F040093FB0BDE8F043FFF7B1B80023A9
:10154000D0E700BF16080020B2660020B91A0000DC
:1015500030B5174B04791B78022BBFB026D1848895
:1015600064BAA4B201231844124A43791370002BC1
:101570004FF0F8024FF0000168460F4D08BF0025FC
:1015800024F0E8F90F238DF800300195ADF80840FC
:1015900004F0FAFF0022694628F0CAFFB0FA80F092
:1015A00040093FB0BDE83040FFF77AB80023DAE7E2
:1015B00016080020B1660020F91A000070B51B4B18
:1015C00004791B78022BBEB005462CD1848864BAFE
:1015D000A4B201232B44164A5B791370002B4FF001
:1015E000F8024FF000016846124E08BF002624F0B2
:1015F000B1F90F238DF8003001238DF80A300196E0
:10160000ADF8084004F0C0FF0022694628F090FFC2
:10161000EA78094BB0FA80F040091A703EB0BDE894
:101620007040FFF73DB80023D4E700BF1608002044
:10163000B9660020A5190000B866002070B5184BE7
:1016400004791B78022BBEB028D1848864BAA4B276
:1016500001231844134B8579134E1D70002D4FF054
:10166000F8024FF00001684608BF002624F072F926
:101670000D238DF800300196ADF808408DF80A5022
:1016800004F082FF0022694628F052FFB0FA80F091
:1016900040093EB0BDE87040FFF702B80023D8E72C
:1016A00016080020B0660020051300002DE9F04167
:1016B0001F4B04791B78022BBEB037D1848864BAE3
:1016C000A4B2012318441B4A037A467990F8078094
:1016D00085791370002B4FF0F8024FF00001684637
:1016E000154F08BF002724F035F9003E18BF01262A
:1016F000003D4FF00C0318BF01258DF80030019715
:10170000ADF808408DF80A608DF80B508DF80C800C
:1017100004F03AFF0022694628F00AFFB0FA80F090
:1017200040093EB0BDE8F041FEF7BABF0023C9E76B
:1017300016080020AF66002021130000F0B5154AFE
:10174000C3790779467985791370BFB0002B4FF0C4
:10175000F8024FF0000168460F4C08BF002424F047
:10176000F9F813238DF800300194ADF80870ADF846
:101770000A608DF80C5004F007FF0022694628F03B
:10178000D7FEB0FA80F040093FB0BDE8F040FEF768
:1017900087BF00BFAC6600203D13000070B5194B39
:1017A00004791B78022BBEB029D1848864BAA4B214
:1017B00001231844144A837946791370002B4FF0A3
:1017C000F8024FF000016846104D08BF002524F0D4
:1017D000C1F80B238DF800300195ADF808408DF865
:1017E0000A6004F0D1FE0022694628F0A1FEB0FA9A
:1017F00080F040093EB0BDE87040FEF751BF0023C5
:10180000D7E700BF16080020AA6600205913000081
:1018100010B5C0B000238DF80730144B04791B7845
:10182000022B08D19DF807308488013364BADBB2FB
:10183000A4B28DF80730F822002102A824F08AF81B
:101840000A238DF808300A4B0393ADF8104004F0DA
:101850009BFE002202A928F06BFEB0FA80F040093E
:1018600040B0BDE81040FEF71BBF00BF16080020C7
:10187000AB5D02002DE9F0411E4B05791B78022B70
:10188000BEB035D185886DBAADB2012283189C1DDA
:101890005E791949194FA82E28BFA82633446846F7
:1018A000DA790A70002A4FF000014FF0F80293F83D
:1018B000068008BF002724F04DF8324621460DF17E
:1018C0000A00ADF8B4508DF8088029F0A9FB019703
:1018D0008DF8096004F058FE0022694628F028FEC1
:1018E000B0FA80F040093EB0BDE8F041FEF7D8BE46
:1018F0000022CBE716080020BC6600208D100000F7
:101900002DE9F043244B0579197846790229BFB0B7
:101910003FD18588C6886DBA76BAADB2B6B24318E3
:101920001E4C9F793B4407311A7B93F807801C4B70
:101930002270002A14BF99464FF00009A82F28BF33
:10194000A82750FA81F4F8220021684624F002F812
:1019500002233A4621460DF10A008DF80030CDF8F9
:1019600004908DF808808DF80970ADF8B460ADF87A
:10197000B65029F055FB04F007FE0022694628F016
:10198000D7FDB0FA80F040093FB0BDE8F043FEF764
:1019900087BE0021C3E700BF16080020BC660020F8
:1019A000A11000000C4A0D4B12781A700C4A5870A6
:1019B00012787AB171B1023301F11C0251F8040BB3
:1019C00043F8040B9142F9D11E22064B03491878C3
:1019D000FEF704BE0222F8E7B966002096650020F3
:1019E0003E600020B86600202DE9F0411F4B0579CC
:1019F0001B78022BBEB037D185886DBAADB20123FA
:101A0000C2181B4956791B4F3244063392F80680A0
:101A1000D2790A70002A00EB03044FF0F8024FF06D
:101A20000001684608BF002723F094FF10233246C8
:101A300021460DF10A008DF8003001978DF80880DD
:101A40008DF80960ADF8B45029F0EAFA04F09CFD75
:101A50000022694628F06CFDB0FA80F040093EB0E3
:101A6000BDE8F041FEF71CBE0023C9E716080020C0
:101A7000B4660020E91200000C4A0D4B12781A706F
:101A80000C4A5870127872B169B1023301F11C022C
:101A900051F8040B43F8040B9142F9D11E2204497A
:101AA0004620FEF79BBD0222F9E700BFB366002087
:101AB000966500203E6000200C4A0D4B12781A708B
:101AC0000C4A5870127872B169B1023301F11C02EC
:101AD00051F8040B43F8040B9142F9D11E2204493A
:101AE0004F20FEF77BBD0222F9E700BFB26600205F
:101AF000966500203E6000200C4A0D4B12781A704B
:101B00000C4A5870127872B169B1023301F11C02AB
:101B100051F8040B43F8040B9142F9D11E220449F9
:101B20004720FEF75BBD0222F9E700BFB166002047
:101B3000966500203E60002070B5124D03792B8021
:101B40004379067A003B18BF0123AB708379EB70B1
:101B5000C3792B710C4B232E28BF23260446232246
:101B6000184600212E7223F0F5FE324604F10901D9
:101B700029F056FA054B01201D60BDE87040FEF7C4
:101B800011BD00BF6C0500202E68002068050020F4
:101B90002DE9F04790F80480274A284E00EB08030F
:101BA000BEB05D792B4408F1060793F80690DB7907
:101BB0001370002B04464FF0AA024FF000010744B7
:101BC0000DF10A0008BF002623F0C4FE1D220021EB
:101BD0002DA823F0BFFE04344FF0000A5FFA8AF309
:101BE000984504D90AF1010ABAF1410F1ED1A82D76
:101BF00028BFA8252A4639460DF10A008DF808901D
:101C000029F00EFA03238DF8003001968DF8095063
:101C100004F0BAFC0022694628F08AFCB0FA80F091
:101C200040093EB0BDE8F047FEF73ABD14F8011F89
:101C30002DA828F009FCD1E7BB660020B5100000F4
:101C40002DE9F04F4F4D077995F800904279B9F1A1
:101C5000020FC1B061D1878884797FBA6200BFB2B8
:101C6000C61DD2B203214FF0010C8318194491F81C
:101C700004800CF10301114443444218634442447C
:101C80001B7A92F804A0404A002B01F10401137062
:101C900000EB010B3D4B4FF0F80208BF0023002181
:101CA00002A8019323F056FE0522019B8DF808201F
:101CB000594642460DF1120003938DF810A08DF89D
:101CC0001180ADF8FC7029F0ABF9B9F1020F4FF0BB
:101CD00000033DD1202C28BF2024E4B298461F46A3
:101CE000711CDAB294421ED827B1620031462FA887
:101CF00029F096F98DF8FE70B8F1000F2ED104F09E
:101D000043FC002202A928F013FCB0FA80F040093D
:101D100041B0BDE8F04FFEF7C3BC861D144602215A
:101D20004FF0000CA1E716F8130011F8132042EA57
:101D30000022A2F58072B2F5806F04D3FFB94FF094
:101D400001080133CDE7B8F1000F18D10127F8E7FA
:101D5000402C28BF4024E4B28DF8FE30002706F165
:101D60000108FBB2A342CAD22B78022B0CBF18F891
:101D70001710F15D2FA828F067FB0137F1E700206D
:101D8000C6E700BF16080020BB660020D110000087
:101D900010B504F00BFC044604F010FC0A4B020ED4
:101DA0001A70020C5A70020A9A70084AD870127897
:101DB000022A09BF05200420220A1A711C5401308E
:101DC000BDE81040FEF778BC96650020160800209C
:101DD00010B5847980880849A82C28BFA82440BA67
:101DE000224680B201F022FB002818BF2046BDE841
:101DF0001040FEF761BC00BF9665002010B5437827
:101E0000072B05D80024E0B2BDE81040FEF754BC13
:101E1000B0F80740437902798079084964BAA4B2DE
:101E2000A82C4FEA032328BFA82403EB024318443D
:101E3000224601F0FBFA0028E4D0E4E79665002092
:101E4000F8B5C488144F64BAA4B2A72C054606D9C5
:101E50002C440020FEF724FC237A3B70F8BD8088D8
:101E600040BA224605F1080180B201F005FB0434B6
:101E700015FA84F40646FEF713FC23793B70002E16
:101E8000ECD0002BEAD005490B70BDE8F8400122E8
:101E90002420FEF7A3BB00BFBA6600209665002091
:101EA00013B54478084A0023033C011D8DF8073020
:101EB000E0B20DF1070301F015F99DF80700FEF7F8
:101EC000FBFB02B010BD00BF9665002007B50146C0
:101ED00000204B788DF80700042B05D9064A0DF138
:101EE0000703043124F038F89DF80700FEF7E4FBFF
:101EF00003B05DF804FB00BF9665002007B5002223
:101F00008DF807200B4A1278022A0346007908D17F
:101F100098889DF80730013340BADBB280B28DF863
:101F20000730054924F009FB072003B05DF804EBF6
:101F3000FEF7C2BB160800209665002000B5124AC5
:101F40000379137011488BB0D3B128F047FA1049C8
:101F50000E4828F047FA2422002101A823F0FAFCB9
:101F600044238DF8043004F015FB4FF4FA7201A9F4
:101F700028F0DEFA01200BB05DF804EBFEF712BB8F
:101F800028F02CFAE7E700BFB5660020CC0C002053
:101F90004512000030B501210446ABB0FEF79EFEAD
:101FA000254828F02AFA63791BB12449224828F0F1
:101FB00028FA94F904302579002B4FF024024FF0D1
:101FC00000011ADB0DEB020023F0C4FC43238DF863
:101FD000243063798DF82850003B18BF01238DF819
:101FE000293004F0D7FA002209A928F0A1FA01202B
:101FF0002BB0BDE83040FEF753BB684623F0AAFC87
:10200000803D65238DF800308DF8045004F0C2FA4D
:102010006946002228F08CFA014658B9842209A8A2
:1020200023F098FCDC2109A801F050FA10B19DF8CA
:102030002C00DDE70020DBE7D40C00209D5C0200D3
:10204000F0B5BFB0054604F0C1FA1C4B1B78022B5B
:10205000C4B230D1AE8876BAB6B201232CB32B44C9
:10206000174A5B791370002B4FF0F8024FF0000114
:102070006846144F08BF002723F06CFC0E238DF830
:10208000003001238DF81130ADF80A400197ADF80A
:10209000086004F079FA0022694628F049FA0A4BF0
:1020A000EA781A70B0FA80F4640920463FB0BDE8BF
:1020B000F040FEF7F5BA2E790023CFE7160800208E
:1020C000B9660020A5190000B86600202DE9F0438C
:1020D000BFB0054604F07AFA204B1B78022BC4B23D
:1020E00039D1AE8876BAB6B2012374B3E9181C4868
:1020F0008A7A91F809900270002A4FF000014FF09F
:10210000F802684603F10508164F08BF002723F0C0
:1021100021FC0E238DF8003001238DF8113055F885
:1021200008300393ADF80A400197ADF808608DF8C8
:10213000109004F029FA0022694628F0F9F90A4BB8
:10214000EA781A70B0FA80F4640920463FB0BDE81E
:10215000F043FEF7A5BA2E790023C6E71608002043
:10216000B9660020A5190000B866002008B504F083
:102170002DFA084A03461078074A022803BF190AB5
:10218000117053701370BDE8084018BF0120FEF7AE
:1021900093BA00BF16080020966500207FB504F0B2
:1021A000EDF905790B4E044620F0DCF8FF2808BF56
:1021B0006325E378084A00950C21304622F06CFF35
:1021C0000390039BE37933730D2004B0BDE87040A6
:1021D000FEF772BA96650020C3B5020007B500216C
:1021E0000846064A0DF1070323F0D9FE9DF80700C3
:1021F000FEF762FA03B05DF804FB00BF96650020AD
:102200002DE9F04F8FB0044604F0E8F9237903700C
:1022100063794370A3798370234E94F807B0DFF895
:10222000909004F1080306F10C0A4FF000080393A4
:1022300056F8047B87F8008019F8015B78682A4615
:10224000002123F087FB5D4528BF5D460399786830
:102250002A4628F0E5FE56453D70E9D1A27961791C
:10226000207923F03DFFCDE90088104800231A466D
:102270004168007823F077FF2422002105A823F08D
:1022800069FB012462238DF814308DF8184004F0A6
:1022900081F9002205A928F04BF920460FB0BDE8CE
:1022A000F04FFEF77FB900BFD4B502005005002003
:1022B000C0B5020013B54478084A0023033C011D51
:1022C0008DF80730E0B20DF1070323F0DAFD9DF839
:1022D0000700FEF7F1F902B010BD00BF96650020BF
:1022E00013B54478084A0023033C011D8DF80730DC
:1022F000E0B20DF1070323F0F1FD9DF80700FEF7B2
:10230000DBF902B010BD00BF9665002008B5044996
:10231000481E24F094F9BDE808400220FEF7CCB92D
:102320009765002070B5044600F0A2FD0D4D0A2609
:10233000B0FBF6F0287000F0A7FDB0FBF6F0687077
:10234000207900EB8000400000F098FD607900EB00
:102350008000400000F09EFDBDE870400220FEF7C6
:10236000ABB900BF9665002013B54478064A033C1C
:10237000011D0DF10703E0B200F0DAFA9DF8070045
:10238000FEF79AF902B010BD9665002010B5054B16
:10239000012420461C7020F0E3F92046BDE81040DF
:1023A000FEF700B9A966002008B5002020F0D8F992
:1023B000034B00221A70BDE808400120FEF7F2B876
:1023C000A966002013B54478064A033C011D0DF1AF
:1023D0000703E0B223F033FE9DF80700FEF76CF927
:1023E00002B010BD9665002008B503F0E1FF064875
:1023F00023F0FCFD20B1BDE808400120FEF7D2B873
:10240000BDE80840FEF74CB9AD5902004378032BF4
:102410000BD90379012B05D8044B002201201A7037
:10242000FEF74AB90020FEF73BB9704796650020D9
:1024300070B543780479032BAAB033D994B3202C18
:1024400028BF202400261A4D2422314668462E70CB
:102450006E7023F07FFA40238DF800308DF8044031
:1024600004F098F86946324628F062F8014688B9C7
:10247000842209A823F06EFAC12109A801F026F8E8
:1024800040B19DF828400DF129012246A81C28F0F2
:10249000C7FD4CB90024A01CC0B22AB0BDE87040F2
:1024A000FEF70AB90224CDE701232B706C70F2E726
:1024B0009665002030B5ABB024220021684623F099
:1024C00049FA55238DF8003004F064F84FF4FA729D
:1024D000694628F02DF80021842209A823F03AFA51
:1024E000D42109A800F0F2FF78B10B4B0AAA10AD75
:1024F000144603CCAC4218605960224603F108032D
:10250000F6D12068186022791A711D202BB0BDE821
:102510003040FEF7D1B800BF9665002030B5254B9E
:1025200004791B78022BABB041D1848864BAA4B281
:1025300001231844242283794579003B18BF0123E5
:10254000003D18BF01250021ED01684645EA8315CD
:1025500023F000FA4C238DF80030ADF804408DF8DC
:10256000065004F017F80022694627F0E1FF002129
:10257000842209A823F0EEF9CC2109A800F0A6FFD7
:1025800078B10D4B0AAA10AD144603CCAC421860CA
:102590005960224603F10803F6D1206818602279B9
:1025A0001A711D202BB0BDE83040FEF785B800231E
:1025B000BFE700BF160800209665002010B51A4B33
:1025C00004791B78022BAAB02BD1848864BAA4B2F8
:1025D00001231844154B42791A70002124226846C1
:1025E00023F0B8F95E238DF8003001238DF8063012
:1025F000ADF8044003F0CEFF0022694627F098FFB3
:102600000021842209A823F0A5F9DB2109A800F004
:102610005DFF08B19DF828002AB0BDE81040FEF724
:102620003FB80023D5E700BF16080020AD660020A4
:1026300000B5ABB024220021684623F08BF95C235F
:102640008DF8003003F0A6FF0022694627F070FFE6
:102650000021842209A823F07DF9D82109A800F0DF
:1026600035FF10B1044B0A9A1A6004202BB05DF8B4
:1026700004EBFEF721B800BF96650020034B1878E5
:10268000023802288CBF002001207047C06600205D
:10269000F0B58BB00446FFF7F1FF50B1237903F09A
:1026A0000F03052B05D001200BB0BDE8F040FDF76E
:1026B00079BF01212046FEF711FB257905F00F03B4
:1026C000082B1B4B21D11B781A4E002B4FF02402F4
:1026D0004FF0000101A808BF002623F03BF9642356
:1026E0008DF80430D4F80630CDF80D30D4F80A3027
:1026F00002968DF80C50CDF8113003F04BFF0022FC
:1027000001A927F015FF0BB0F0BD1B78094C002B79
:102710004FF024024FF0000101A808BF002423F06D
:1027200019F959238DF8043002948DF80C50E4E720
:10273000BF6600205D12000038B50446FFF79EFF1B
:10274000054620B1BDE838400120FDF72BBF2046EB
:102750000121FEF7C3FA064B064A1B782079002BAD
:10276000294608BF0022BDE8384023F074B900BFF5
:10277000BF6600205D12000038B5124B44791B780B
:10278000022B05460CD1B0F8054064BAA4B2012171
:10279000FFF774FF30B1BDE838400120FDF702BFFC
:1027A0000021F5E728460231FEF798FA064B074A62
:1027B0001B782879002B214608BF0022BDE838404D
:1027C00023F049B916080020BF6600205D12000002
:1027D00070B58AB00546FFF751FF044628B10120C5
:1027E0000AB0BDE87040FDF7DDBE28460121FEF7C6
:1027F00075FA0D4B2E791B780C4D002B21464FF0AE
:10280000240201A808BF002523F0A4F867238DF84F
:10281000043002958DF80C6003F0BCFE224601A93D
:1028200027F086FE0AB070BDBF6600205D12000072
:10283000054B1B7833B105490222487061200B70AB
:10284000FDF7CCBE704700BFAE6600209665002045
:10285000054B1B7833B105490222487063200B7089
:10286000FDF7BCBE704700BFAD6600209665002036
:1028700010B40B4608490C7854B108494870CA7026
:102880000C708B705DF8044B0422A420FDF7A6BEEB
:102890005DF8044B704700BFAB66002096650020D2
:1028A00010B5084B084A934201D3002006E01C787B
:1028B000C1788C4203D15B689847012010BD083372
:1028C000F1E700BF30F8020018FB0200F8B5074C32
:1028D000074F05460E46BC4200D3F8BD31462046A0
:1028E000A8470028F9D10834F5E700BF30F8020006
:1028F00018FB020010B504461FF02EFB48B1054935
:1029000001224FF496700C7003F00CFEB0FA80F0C8
:10291000400910BDC166002010B5044C01222146BB
:102920004FF4967003F0F4FD207810BDC1660020CE
:10293000F0B50F468BB015461E4620B91070012326
:1029400033700BB0F0BD0B781370202B15D8CBB1C2
:10295000013B1F2B16D8DFE803F01937CD5EDF15DA
:10296000156715151515151515B6BB8CA315151579
:1029700015151515151515151543402B3BD0802B36
:1029800000F0AB8000232B70387826E0FF236B70BB
:102990001C22002103A822F0DDFF80238DF80F30D8
:1029A0008DF81730614B029302AA023506AC13462C
:1029B00003CBA342286069601A4605F10805F6D1E9
:1029C0001B782B701323BBE7012816D04B78584A8D
:1029D000003B18BF01231370012068700223AFE78A
:1029E0000DF1050023F063FC10B9FE238DF80530CE
:1029F0009DF80500F1E7012801D10020EDE74878B6
:102A00008DF80500092803D9A0F12003012BF4D883
:102A100023F031FCE1E70228EFD991F9021097F990
:102A2000010023F08FFCD8E702A90DF1060023F086
:102A3000A7FCBDF906307F2B11DD7F23ADF80630F2
:102A4000BDF908307F2B0FDD7F23ADF80830BDF8CE
:102A500006306B70BDF80830AB70032370E780332D
:102A6000EEDA4FF68073E9E78033F0DA4FF68073E1
:102A7000EBE70228C1D9B1F80140B1F80370E4BA1C
:102A800023F046FA14F1640FB7DB8442B5DC79BA5F
:102A900001F164039BB2C82BAFD809B22046C0E74E
:102AA00002A90DF1060023F06BFCBDF906309DF97B
:102AB00007206A70AB709DF90920BDF908302B71B1
:102AC000EA7005233CE703F053FD8369187B84E734
:102AD00003F04EFDC36918787FE70124154BA0422F
:102AE0001C708AD04878421EA24286D8187023F003
:102AF000F8FB71E7022880D9B1F80140E4BA23F06D
:102B000007FA14F1640FFFF678AF84423FF775AF10
:102B1000204623F059FC60E702A823F071FC9DF9E0
:102B20000920BDF908306A7096E700BF9F800780D2
:102B30003E6000201608002038B5D0F80550037913
:102B4000D0F8094029BA73B9094B18681FF0E2FEA2
:102B500025B11CB1074821BA23F0DCFFBDE838409D
:102B60000120FDF71FBD012BF2D1034BEDE700BFA4
:102B7000C40C0020800C0020C00C002008B5037994
:102B800043B9064B186828F0DFF8BDE8084001207B
:102B9000FDF708BD012BF8D1014BF3E7C40C002071
:102BA000C00C0020034B0122042083F8902000F089
:102BB000D9BC00BFE00C0020034B0122042083F8A5
:102BC000482000F0CFBC00BFE00C002038B50B4D12
:102BD000044604F005FD68681FF092FCA04209D38A
:102BE0000023032085F8D93000F0BCFCBDE8384054
:102BF00004F00CBD85F8D940F8E700BFE00C0020D8
:102C000038B505460D480E4C27F013FD78B104F198
:102C1000500027F0DBFC002384F8903094F8DB3080
:102C2000E218013382F8DC5084F8DB3038BDD4F888
:102C3000941004F1500027F094FCECE7300D0020D4
:102C4000E00C002008B5054B58681FF059FC20B176
:102C5000BDE80840032000F085BC08BDE00C002062
:102C6000054B93F8D9208A4205D80022032083F827
:102C7000D92000F077BC7047E00C00202DE9F04728
:102C8000C2B0804689461746002140F2031201A8CF
:102C90001E4622F05FFE012336488DF80430364D83
:102CA00027F0AAFC354827F0A7FC0024344827F079
:102CB000A3FC85F8904085F84840002F40D006F1ED
:102CC000030A32465FFA8AFA394602A88DF805A04F
:102CD0008DF806908DF8078028F0A2F901AAFF234D
:102CE000544528DB01AA32441371264A1670264A3D
:102CF00082F80090254A82F80080254A1760254A0C
:102D00001370012085F8DA00FFF760FF2B783BB9DC
:102D10009DF805204A9B6868023201A91FF0BCFBA0
:102D2000E96C144827F01DFCFA21154827F019FC1E
:102D300042B0BDE8F08712F8011F01344B40CFE7E5
:102D4000104B1C78E31C8DF805300F4B1B788DF869
:102D500006300E4B1B788DF807300D4B196819B1F2
:102D6000224602A828F05CF901AB1C44094B1B78F1
:102D70002371C6E7E80C0020E00C0020300D002095
:102D8000780D0020C5660020C4660020C3660020C0
:102D9000DC0C0020C266002010B5034C606827F0F0
:102DA000A9FF0028FAD110BDE00C0020F0B58BB0CF
:102DB00000212822684622F0CDFD264A264B0193A9
:102DC000B423CDE9032302934FF4E13305930823A1
:102DD0008DF818300127214B07938DF81A7003F0F6
:102DE0001FFC1F4C089040F2DC532646211DE36473
:102DF00068469623C4F8943000251FF0B9FA60683D
:102E00001FF03CFB06F8085B2946164A304603F0E3
:102E1000AFFA304604F1500627F0EEFB2946124A7D
:102E2000304603F0A5FA304604F1980627F0E4FB9B
:102E30000E4A3946304603F09BFA304627F0DCFB59
:102E4000042084F8D85084F8DB50FFF7BFFE0BB0A5
:102E5000F0BD00BFC66600207A670020612C00002C
:102E6000E00C0020B92B0000A52B0000452C000031
:102E7000014BD86C704700BFE00C0020014BD864B8
:102E8000704700BFE00C0020014BD3F8940070475E
:102E9000E00C0020014BC3F894007047E00C0020C8
:102EA000F7B58B4C064604F1500760681FF028FB0D
:102EB000F0B994F890514DB194F8905035B184F830
:102EC000900084F8D80084F89001042594F8DA3052
:102ED000002B00F0BC8094F84830002B00F0B78045
:102EE000002384F8483084F8D83084F8DA303AE0A7
:102EF000606801220DF106011FF032FB94F8D83012
:102F0000052B00F2BE80DFE803F003394E54687BE6
:102F10009DF80650012D0AD1002384F8D85084F87A
:102F2000DB3084F890512846FFF76AFEBDE794F83D
:102F3000DA30D3B1062D01D0152DB6D10023654866
:102F400084F8DA3084F8483084F8903027F054FB65
:102F5000614827F051FB614827F04EFB062D00F039
:102F6000B580152DA1D1052571E05A4884F8483067
:102F700027F042FB594827F03FFB96E79DF80600F3
:102F8000C31EDBB2B12B0AD90025384684F8D850CD
:102F900084F8905127F030FB84F8905085E70223A5
:102FA00084F8D830C0E79DF806000128ECD8032348
:102FB000F6E79DF80600FFF723FE94F8DD30032BBB
:102FC00006D9033B84F89131042384F8D8306CE7A8
:102FD000012384F891310523F7E794F891319DF8A6
:102FE0000600013B84F89131FFF70AFE94F8DB30CC
:102FF000B32BF0D894F8DD209A42BFF456AFEAE73D
:1030000038469DF8065027F0F7FA0022182384F876
:10301000902084F8D82084F890218DF8073026B3CA
:1030200094F8DD002E49FF23824219DB9D420CBF3C
:10303000062315238DF8073023780CBF01250325BF
:103040002BB9606801220DF107011FF025FA94F8F1
:10305000D830052B2ED8DFE803F025303234363453
:1030600011F8016F01327340DEE72378002B7FF403
:103070001CAF6068334601220DF107011FF00CFA06
:1030800013E70023134884F8D83084F8903184F88B
:10309000483084F8903027F0AFFA104827F0ACFAA7
:1030A0000D4868E794F8DA30002B0CBF04200120AB
:1030B000FFF78CFD284603B0F0BD0320F8E702209F
:1030C000F6E70120F4E794F89101F1E70225BEE765
:1030D000E00C0020E80C0020300D0020780D0020CE
:1030E000BC0D00202DE9F0431446BBB00E469846B7
:1030F0001FF004FE002323706370A370E370337825
:103100000746032B29D8DFE803F002326CA85E4E95
:103110003378032B21D1242200210DEB020022F071
:1031200019FC6A2300208DF824301FF019FB09A830
:1031300023F0F8F90546B8B90146842219A822F00F
:1031400009FCDE2119A800F0C1F968B19DF86830CA
:1031500053B13B0A3570A370E7700025043588F839
:1031600000503BB0BDE8F08301232370F5E7464BE8
:103170001A78012A01D90223F7E7757801221A701B
:103180007388402D28BF40255BBA1FFA83F915FAD2
:1031900083F3834221BFA0EB0905EDB2FF23237027
:1031A0006570B378A370F378E370242200210DEBEF
:1031B000020022F0CFFB04346B2309A8CDE90A9565
:1031C0008DF824300C9423F0ADF901460028C5D1C8
:1031D000842219A822F0BEFBDE2119A800F076F99E
:1031E000BCE7294B1A7812F0FD0FC4D17578022282
:1031F000402D1A707388B7D85BBA1FFA83F915FA95
:1032000083F3834222BFA0EB0907FDB2FF2309AF7E
:1032100028BF23702A46311D384627F001FF0021C0
:103220002422684622F096FB6C236846CDE901957E
:103230008DF80030039723F075F9014638B98422E0
:1032400019A822F087FBDE2119A800F03FF965706C
:10325000B378A370F378E3707FE70B4D2B78032BE3
:103260003FF47BAF2422002119A822F073FB6D23C9
:1032700019A88DF8643023F055F900287FF474AF55
:1032800003232B7069E700BF4008002010B54FF4FE
:103290000074ADF5007D22460549684627F0C0FE62
:1032A00022466946C82003F03DF90DF5007D10BDAA
:1032B000E4B5020010B5A0B003F01EF903F0FCF86D
:1032C000684622F0F9FE0446002800F082801FF0D4
:1032D00043F8009B98424ED001A822F0EDFE1FF06B
:1032E0003BF8019B0290984245D9494A93421CD829
:1032F000002403AA6821002027F0E6FD039B059423
:1033000005AA68212046ADF818401FF0C3FB8C23A6
:10331000ADF8183005AA0623682120468DF817401D
:103320001FF00EFC08B93B4B01933B4B019A9A42AC
:103330000DD80020062303AA6821CDE905000390DB
:10334000ADF810001FF0A6FBC0B122F09DFE334B7C
:10335000019A9A420CD80023082205A96820CDE9D9
:1033600005338DF81C3003F0D3F828B322F08CFE1F
:1033700002A822F0ABFE012020B010BD9DF80C3059
:103380008DF814309DF90D30ADF815309DF90E30E3
:10339000ADF817309DF80F308DF81930BDF81030AA
:1033A000ADF81A3005AA082368211FF0C9FB0028D0
:1033B000CDD11B4B0193CAE70123092205A968203F
:1033C0008DF81C3003F0AEF80028D1D1154B0193D5
:1033D000CEE7ADF814008DF81600032205A966208B
:1033E00003F0A0F86C22214605A822F0B3FA6C2263
:1033F00005A9672003F096F8FFF748FF22F044FE86
:10340000094B059305A822F061FE2046B4E700BFF2
:10341000020F0700030F070000120700FF14070048
:1034200001120700001507000003010070B5ADF59B
:10343000007D05460C4616460E494FF4007268465C
:1034400027F0EEFDC82022F02DFE18B900200DF562
:10345000007D70BD4FF400726946C82003F058F833
:103460000028F3D132460DEB0501204627F0D8FDA8
:103470000120ECE7E4B5020070B5ADF5007D04462F
:103480000D46164610494FF40072684627F0C8FDF5
:103490004FF400726946C82003F03AF888B9324602
:1034A00029460DEB040027F0BBFD4FF4007269467E
:1034B000C82003F037F8B0FA80F040090DF5007D20
:1034C00070BD0020FAE700BFE4B502002DE9F74324
:1034D0000746894603F04CF8214BC668D3F80080B4
:1034E0006424304623F0B0FE0546C5B90A20013CED
:1034F00003F04CFB14F0FF04F3D1B8F1000F0AD035
:10350000304623F0A1FE30B100940123022221466F
:10351000404603F06BFD204603B0BDE8F083002277
:103520003946304623F098FDC0B13B784B450FD16A
:10353000B8F1000F0AD0304623F086FE30B10021EA
:10354000009101230222404603F050FD0124E2E7EE
:1035500000231A463946304623F0B9FC013DC4E742
:10356000740E00201FB50E4B02461868A8B100214A
:1035700003ABCDE90013012303FA02F2039103F038
:103580009FFD039B4BB14FF0E0234FF08052C3F8F7
:10359000042DBFF34F8FBFF36F8F05B05DF804FBB1
:1035A000740E0020014B1860704700BF740E00209D
:1035B00038B500F075FD0E480E4D012100F06CFA93
:1035C000012201241146104600F0CEFC224621467D
:1035D0002046C5F8804000F0C7FC2046C5F884406E
:1035E0002246214600F0C0FCC5F88840002038BDC6
:1035F00030053E0000400E4008B5124B01225A64CF
:103600001A6842F480721A600F4AD2F8A43143F467
:10361000F843C2F8A43101F087FE01F033FE01F057
:103620004BFEFFF7C5FF23F0CEF900F0A9F800F03C
:103630004FF903F021F81EF0BBFDBDE8084002F091
:103640002DB800BF00000E4000300E4008B500F05D
:1036500083F8124B12498B4212D3124B12490020AD
:103660008B4218D3FCF72EFE186850F82240586899
:1036700040F82240013298688242F5D30C33EAE7E1
:103680000022F8E71C6844F8220001325C68A2427C
:10369000F8D30833E4E70022F8E700BF58FC020043
:1036A00064FC020064FC020064FC020000487047F5
:1036B000C0175302104AD2F8943003F00703023BBC
:1036C000032B13D8DFE803F00C14020E0B4B1B681E
:1036D000D2F80001C0F304200130B3FBF0F07047D2
:1036E000074BF4E7074B1B685B08F1E7054BEEE778
:1036F0004FF40043ECE700BF00400E40840500207B
:10370000880500207C05002008B5FFF7D3FF054B96
:10371000D3F80831C3F308230133B0FBF3F0024BB5
:10372000186008BD00400E4080050020014B18685D
:10373000704700BF88050020054B1860054BD3F883
:10374000943003F00703022B01D1FFF7DDBF704770
:103750008805002000400E40044B054A9A60D3F8CB
:10376000882042F47002C3F88820704700ED00E022
:1037700000000000014B1868704700BF840500205E
:103780000F4BD3F82838A3F17E62A2F58432B2F54C
:10379000804F10B511D219680A4A91420DD10A4CD6
:1037A000227812F0FD0F01D0002010BDDB69984790
:1037B0000028FAD101232370F6E74FF48170F4E773
:1037C0000000E10F07B0CD5E516800204FF00053BC
:1037D0000B4A1A600B4A01239360136823F4E063D9
:1037E00043F480631360BFF34F8F0749074BCA68E8
:1037F00002F4E0621343CB60BFF34F8F00BFFDE7DD
:1038000002020FF000500E4000ED00E00400FA0547
:10381000054A06490346106803448B4294BF13606F
:103820004FF0FF30704700BF8C0500200080002063
:1038300070B50C4E0446012504B970BD94FAA4F08D
:10384000B0FA80F006EB001205FA00F324EA030454
:103850005368002BF0D0117B11B191689847EBE7CA
:103860009847E9E7780E002008B5122000F0AEFC7A
:1038700028B1084B4FF48022C3F880211A600A2037
:1038800000F0A4FC28B1034B4FF48062C3F8802100
:103890001A6008BD00E100E0054BD3F82804D3F816
:1038A0001C24104000F05530C3F82404FFF7C0BFBB
:1038B00000A00040054BD3F82804D3F81C24104086
:1038C00000F0AA30C3F82404FFF7B2BF00A0004004
:1038D000024B1968024B186805F008B990050020E2
:1038E000B005002070B59400224605460E4622F031
:1038F000D2FF431C0AD058B922463146284627F049
:103900009DFB0028034808BF002070BD0248FCE76B
:103910000248FAE710E000F021E000F024E000F0B7
:1039200010B5044601F096FA431C10D088B901F096
:103930009BFB20F0030023462044984201D1002045
:1039400010BD53F8042B0132F7D00348F8E70348C1
:10395000F6E70348F4E700BF0EE000F021E000F0D6
:1039600024E000F008B522F04FFF014B186008BDBD
:1039700048140020014B186822F04ABF4814002068
:103980000C4B984205D90C4B984210D801220123C8
:1039900001E00022134609490B640949D1F80031BE
:1039A00023F0807343EA0263C1F8003170470222BA
:1039B000EDE700BF0048E8010090D0030000C843D5
:1039C00000400E400F4B5B680F4B30B500221C4689
:1039D000C9B21D798D4202D11D6885420DD20132D6
:1039E000052A03F10803F4D10321064A536823F0A2
:1039F000407343EA0163536030BD04EBC204617954
:103A0000F3E700BF00000E407CB8020038B5074C59
:103A100041F67133256C2364FFF748FEADB20021F7
:103A2000FFF7D0FF0DB10023236438BD00000E4026
:103A3000044BDB6B5B0604D4034AD2F8C830002B7E
:103A4000FBD1704700300E400000C64308B5FFF7B9
:103A5000EFFF024B5868C0F3014008BD00300E4034
:103A6000044BD3F84421D20703D4D3F840211042A9
:103A7000FBD1704700400E4038B5064C256C41F62E
:103A800071332364ADB2FFF79DFF0DB100232364B2
:103A900038BD00BF00000E4038B5C0F30323013B22
:103AA000092B11D8DFE803F0052710102B221D1079
:103AB0001511154DC0F3043405F1424505F5801587
:103AC00004EBC5008000016038BD104DC0F3043424
:103AD000F2E70F4DC0F304344FF48030FFF7C0FF1E
:103AE000EAE7C0F304340B4D1020F7E7C0F30434C9
:103AF000094D0120F2E7094DC0F30434DCE7084D1D
:103B0000C0F30434D8E700BF00400E4050410E40DF
:103B1000F0400E40E8400E40E0400E40C0400E40F5
:103B2000B0400E40C0F30313013B092B3FD8DFE840
:103B300003F0050B0F193E3E1F232C351D4BD3F808
:103B40000001C0F3042070471A4BD3F81401F8E7C2
:103B5000184BD3F80031C3F30063013301209840C0
:103B600001387047134BD3F80C01C0F3082070479D
:103B7000104BD3F80801F8E70F4B984217D10D4BC3
:103B8000D3F8203103F00F03E8E70C4B98420ED135
:103B9000084BD3F82831C3F30113DFE7084B9842F1
:103BA00005D1044BD3F8300100F00300704700202A
:103BB000704700BF00400E408006160090171A00A4
:103BC000A009140000F00F000138052843D8DFE8F1
:103BD00000F003162442363A234BD3F8943003F016
:103BE0000703023B052B08D8DFE803F0032725373E
:103BF0000705042070470C207047052070471A4BBA
:103C0000D3F8800000F0070002282BD0042828D029
:103C100001280CBF032001207047134BD3F88430D8
:103C200003F00703013B032B03D8DFE803F006048E
:103C3000181A0120704702207047032070470A4B72
:103C4000D3F88800DEE7084B1B6F13F0010F0CBFA1
:103C5000072009207047002070470B20704706207E
:103C600070470A20704700BF00400E4008B501466B
:103C7000FFF7A8FF1A4B994211D01A4B994212D064
:103C8000194B994204D1194BD3F8800000F007007A
:103C90000138032821D8DFE800F00A0E1612134B72
:103CA000D3F88400F2E7114BD3F88800EEE7BDE8C3
:103CB000084022F061BDBDE80840FFF75BBDBDE8EC
:103CC000084022F05CBDFFF7F5FC084BD3F800314B
:103CD000C3F300630133D84008BD0020FCE700BFF8
:103CE000030020000500240002001E0000400E40DA
:103CF00000F47813B3F5A01F10B504465AD01ED8AF
:103D0000B3F5202F74D009D8B3F5003F47D0B3F5F1
:103D1000802F39D0002B6BD0002010BDB3F5602F61
:103D20005FD0B3F5801F67D0B3F5402FF4D1FFF714
:103D3000C1FC334BD3F81431C3F304232BE0B3F5A8
:103D4000001F41D011D8B3F5D01F3FD0B3F5F01FFD
:103D50002BD0B3F5B01FDFD12A48FFF787FF284BE0
:103D6000D3F8203103F00F032CE0B3F5101F36D049
:103D7000B3F5781FD0D1FFF79DFC0146204622F015
:103D80003EFDB1FBF0F0C8E7FFF794FC1C4BD3F805
:103D90000C31C3F308230133B0FBF3F0BDE7FFF7A9
:103DA00089FC174BD3F80831F3E71648BDE81040FB
:103DB000FFF75CBF1448FFF759FF114BD3F83031C0
:103DC00003F00303D840A8E71048EFE70F48FFF7D8
:103DD0004DFF0B4BD3F82831C3F30113F2E70A4828
:103DE000E4E70B48FFF7EEFE072805D0092893D13A
:103DF000BDE81040FFF75EBC064B18688DE700BFBA
:103E000000400E4002001E000500240003002000B8
:103E100006000E00B405002010B5FFF7F7FD094BB2
:103E200007225A67FFF746FCFFF7AAFDFFF76CFC75
:103E30000446FFF70BFE01462046BDE81040FFF7A1
:103E40001BBE00BF00400E40014B1880704700BFF2
:103E5000FC070020013810B5032812D8DFE800F075
:103E6000022E1220214AC1F30801D2F86838002B33
:103E7000FBD11F4A136A23F4FF7323F001030B43A2
:103E8000136210BD194A01F07F01D2F86038002B8F
:103E9000FBD1174A136923F07F030B431361F0E74B
:103EA000124A01F07F01D2F86438002BFBD1104A8E
:103EB000936923F07F030B439361E2E70C4AD2F846
:103EC0009030536A23F0300343F010035362146BB5
:103ED000084BC1F3C31003300F2803EA040328BFC3
:103EE0000F200B4343EA00731363CAE70020C84363
:103EF00000400E4000F8FF0F104A536A13F0300FD5
:103F000018D0202913D0302914D000290C4B08BF19
:103F10004FF44003D2F8901033EA0101FAD15B026A
:103F200046BFD2F8A000C0F38020012070474FF4B4
:103F30000003EFE74FF44003ECE700BF00400E4002
:103F4000FF33E13F02280AD129B1064B4FF48060CC
:103F5000C3F8A800596612B10220FFF7CDBF0120B7
:103F6000704700BF00400E400428F8B548D8304BD9
:103F700013F800C02F4B1D5C2F4B33F810702F4BE4
:103F800033F810402E4B002940D0022839D15C6A0A
:103F900014F0300F35D12B4CE46B5C6AE40705D587
:103FA0005E6A26F0300646F010065E62264C244B10
:103FB00025441F66AD002B68002BFCD002B364447F
:103FC000A4002368002BFCD0022819D1C1B11C4DDC
:103FD000696A11F0010116D001222021FFF7B2FF1A
:103FE000D5F89C60012200210220FFF7BDFFC6F337
:103FF0000A010220FFF72EFF2F662368002BFCD05A
:10400000F8BD0021D2E7FFF777FFE9E701211C6641
:10401000A940D3F890000842FBD1002AF0D0012338
:10402000074903FA0CF3D1F890201A42FBD1E7E7D5
:1040300077B8020072B8020068B802005EB80200E9
:1040400000400E4000300E408004F21010B50246D1
:10405000B8B901221146FFF787FFFFF7D7FC0F4BD6
:1040600004225A67FFF726FBFFF78AFCFFF74CFB99
:104070000446FFF7EBFC01462046BDE81040FFF781
:10408000FBBC012807D10146FFF76EFFFFF7BEFC1E
:10409000024B0322E5E7FFF7B9FCE3E700400E40DF
:1040A00038B5FFF743FB0021044600F005FB12483A
:1040B000FFF766FC012211460220FFF755FFFFF7CC
:1040C000A5FC0CB1FFF7B4FC0C4B02225A67FFF7BA
:1040D000F1FAFFF755FCFFF717FB0546FFF7B6FCB3
:1040E00001462846FFF7C8FC2CB920460121BDE84F
:1040F000384000F0E1BA38BD0148E80100400E4008
:10410000012210B511460320FFF72EFFFFF77EFCBA
:10411000084B05225A67FFF7CDFAFFF731FCFFF78E
:10412000F3FA0446FFF792FC01462046BDE8104032
:10413000FFF7A2BC00400E4010B504461120FFF767
:1041400041FD002101220220FFF70EFF184A217CC9
:10415000536A23F00103022908BF43F001035362AD
:10416000144B2178C3F8A014637AA18843EAC123D1
:10417000D362136BA07A217A03F07F630343E08854
:1041800043EAC02343EAC11303310F2928BF0F219B
:1041900043EA01731363A37B617B1B0143EA013391
:1041A000E17B0B43217B43EA0143536310BD00BF16
:1041B00000400E400000C843034B5868C0F308009D
:1041C000003818BF0120704700ED00E04209054BA0
:1041D00053F8223000F01F0023FA00F0C04300F033
:1041E0000100704700E100E0034BD86B80F0400015
:1041F000C0F38010704700BF00300E4042EA032237
:10420000B2F5007F10B5194C29D00AD8B2F5807FDD
:1042100022D040F201139A4215D062B9D4F81C3270
:104220000BE0B2F5407F1DD040F201339A4210D02E
:10423000D4F8283201E0D4F82432C3F30722DBB2E9
:1042400003600A6010BDD4F824321A0EC3F307438A
:10425000F6E7D4F82832F8E7D4F81C32F5E7D4F8BA
:104260002032EAE7D4F82032EFE700BF0081E00F08
:1042700010B50C4603283ED8DFE800F00227353998
:104280001E4BD3F8F031C3F3031003F00F020A21E1
:1042900001FB0022C3F30330C3F3032301FB00330C
:1042A0009B1A1749581E884225D80131B1FBF3F3F8
:1042B00064216143A1F53531A1F5247103FB02119D
:1042C00001EB5301B1FBF3F010BD0C4BD3F8F0310F
:1042D000C3F30350C3F303420A2101FB0022180F6A
:1042E000C3F30363DAE7054BD3F8F431CBE7034BB1
:1042F000D3F8F431ECE72046E6E700BF0081E00F99
:104300007FB5010008B5FFF76FFF20B1024AD2F870
:10431000C830002BFBD108BD0000C64308B5FFF72D
:1043200063FF80B1FFF7EEFF074B19685A68C1F3CE
:104330000121C2F3014291421A688CBF42F010027F
:1043400022F010021A6008BD00300E40064B1B68B8
:10435000DB0608D5054B1B69C3F30443082B02BFDA
:10436000034B044A1A60704700300E4000400E4074
:104370007C050020C0EA210170B5FFF735FF38B198
:104380002D4B1A781023C2F1020293402B4A13617D
:104390002B492C4DD1F8804145F60E03C1F88031F0
:1043A0002B6823F0AA03DB05DB0D0B66FFF7AAFFE2
:1043B000224B1B68D80604F0010415D5D1F8403112
:1043C000DA01FBD4204B1B680B61204B1B78052BBB
:1043D0000AD11F4B1E68FFF795FF184B59683046EE
:1043E000C1F30141FFF748FB184B1B78023B0A2B36
:1043F0000AD8DFE803F00615170909090909091A9F
:104400001D000020FFF722FE2B68DB075EBF0C4B70
:1044100002221A661CB10A4B0022C3F8802170BD2B
:104420000120EFE7FFF73CFEEEE7FFF769FEEBE761
:10443000FFF7F2FCE8E700BF5268002000300E40B2
:1044400000400E40501400204C14002053680020FF
:104450007C05002010B50B4C0B4BD4F890201A6053
:104460001120FFF7AFFB094B1870FFF74BFF084B0C
:10447000084A5B68C3F301431370074B22691A6053
:1044800010BD00BF00400E405014002053680020B3
:1044900000300E40526800204C140020064942783B
:1044A0000B6823F4407343EA0223022A0B6004BF23
:1044B000024B5B6A704700BF00300E4000400E4068
:1044C00038B5054608B1FFF7C5FFFFF727FF184AC3
:1044D000136943F00403136122F0A6F922F0A5F951
:1044E000144B1B68DB0614D522F08EF927F054F824
:1044F00022F08EF922F09AF90E4C01F02DFB55B105
:10450000FFF73AFFD4F84C3123F00043C4F84C31A4
:1045100038BD30BFEEE7FFF719FFD4F84C3123F078
:104520000043C4F84C31BDE83840FFF7EDB800BF98
:1045300000ED00E000300E4038B5054608B1FFF749
:1045400089FFFFF7EBFE1D4B1D4CD3F8802145F68C
:104550000E01D207C3F8801148BF00224FF420712A
:10456000196648BFC3F88021164A136943F0040353
:10457000136122F059F92368DB0611D522F044F9C2
:1045800027F00AF822F044F901F0E6FA55B1FFF7F6
:10459000F3FED4F84C3123F00043C4F84C3138BD5D
:1045A00030BFF1E7FFF7D2FED4F84C3123F00043DF
:1045B000C4F84C31BDE83840FFF7A6B800400E40C3
:1045C00000300E4000ED00E00E4A0379916921F0C1
:1045D0003F010B43017843EA8103417843EA4103F9
:1045E000817843EAC103C178012908BF43F0010380
:1045F00093611368417923F4403343EA0143136024
:10460000704700BF00300E4070B50D4CA569A6691B
:104610004AF6E85325F4403545F4003546F4403673
:10462000A36022F008F922F007F9A561A661A5614F
:10463000A661A561A661A561A661A56170BD00BF67
:1046400000300E402DE9F04104460D46FFF7CCFD49
:1046500060B3DFF86080FFF755FED8F80430C3F38D
:1046600001439C4222D0124BD3F80031FFF722F8CD
:10467000022C07464FF0100609D12146FFF7FCF93E
:10468000C8F8106095B1BDE8F041FFF73BBEC4F13A
:1046900002039E40C8F810600DB1FFF733FE2CB93D
:1046A00021463846BDE8F041FFF7E6B9BDE8F081A4
:1046B00000400E4000300E4038B505460C46FFF76E
:1046C00093FDB8B145B90C4BD3F80051FEF7F2FF9A
:1046D000C5F3042505FB0005084B1B7821463BB1BB
:1046E000074B9D4204D80220BDE83840FFF7AABF1F
:1046F0000020F9E738BD00BF00400E40546800209C
:10470000002D3101034B02781A7001210020FFF7C0
:10471000D3BF00BF54680020174B4AF6E85210B5CB
:10472000596B5A639A6FD407FCD41B6C13F00303C4
:1047300006D0124A01249842C2F8B44A05D110BDED
:1047400018B90E4BC3F8B40AF9E70B4B9A6FD207AE
:10475000FCD41A6C22F0030202431A649A6F12F01E
:104760000102FBD10038054C18BF01200129C4F813
:10477000B40A08BF5A63E2E700300E400000C643A7
:104780002DE9F04F00238BB0CDE90433CDE906339A
:10479000CDE90833A0F5E163B3F5966F05460191C5
:1047A000934603D900200BB0BDE8F08F624BDFF8D1
:1047B0008C81D3F81842B0F5E16F15BF4FEA146A47
:1047C000C4F3072AC4F30744E4B20694CDF824A046
:1047D000D8F84C60C6F301768CBF01220022334624
:1047E00007A904A815BF4FF4E1674FF496674FF48B
:1047F00096694FF416790392FFF700FDD8F8EC3074
:10480000039AC3F3012308A905A80293FFF7F6FC56
:10481000A5EB070CAAEB04020CFB02F2B2FBF9F2C7
:1048200014445445079F0498089A0599BAD8A2EBF6
:10483000010E0CFB0EFEBEFBF9FE11EB0E012CBFB0
:104840004FF0010E4FF0000E8A42ABD3BEF1000FC5
:10485000A8D13A1A0CFB02F2B2FBF9F280182CBF75
:104860000122002287429DD3002A9BD1029BBBF1EB
:10487000000F0FD0D8F85C20B5F5E16722F4FE42B6
:1048800018BF012722F0020242EA470242EA04224C
:10489000C8F85C20019A0AB9012084E7264A022E52
:1048A000D2F830223ED0032E3FD0012E14BFD2B218
:1048B000C2F30722120312F4702F7FF473AF1F4E5E
:1048C000F46E24F470442243F2661B4A022BD2F8A1
:1048D00030222CD0032B2DD0012B14BFD2B2C2F327
:1048E0000722120312F4702F7FF45CAF134CD4F83C
:1048F000EC3023F470431343C4F8EC30636E884209
:1049000038BF084623F4FF73E72823F0010328BFCC
:10491000E720B5F5E16F18BF43F0010343EA400318
:104920006366B9E7C2F30742C4E7120EC2E7C2F3F7
:104930000742D6E7120ED4E70081E00F00300E40A8
:104940002F4B1A6FD96C11F0010F02F0060242D002
:10495000002A40D013284FD9143813288CBF1023B5
:1049600008232749013BCA6C180322F47F4240EA1E
:1049700003231343CB64234BCA6C1B88C2F303226B
:104980002833013202EB820003EB5303B3FBF0F355
:10499000C86C013B072B28BF072320F0EE6040EADC
:1049A000036343F48013CB64174BB3F90030002B3F
:1049B00010DB2833500800EB420203EB5303B3FB38
:1049C000F2F30A6D072B28BF072322F0700242EA98
:1049D00003130B657047D96C01F00101114304D139
:1049E000092809D90A380928B8E7DB6C13F0010354
:1049F000B7D01AB92728B1E70423B2E70023B0E7FC
:104A000000300E40DC5F0020D85F0020064A074BD4
:104A1000D3F88039136F23F0070303431367044B64
:104A20001888FFF78DBF00BF00300E400000C6435E
:104A3000DA5F00202DE9F041C288B0F8088085884F
:104A4000B0F90C6047784A2A04464FD9B2F5FA7F8C
:104A50004ED340F6C3139A428CBF4FF040524FF0F2
:104A600000522849CB6C23F0405323F00103002E61
:104A7000A8BF43F001031343CB64D1F8EC3043F4F7
:104A80004073C1F8EC30204B1D80CB6E43F0807337
:104A9000CB661E4BD3F8800900B10420FFF7B6FFA8
:104AA0001B4BA3F800801B4B28461E80FFF748FFD6
:104AB000A37B03B3012B22D0012260881146FFF7AC
:104AC0005FFE054678B10F4AD36B43F48063D3632E
:104AD0003846FFF721FEA37AA3F120025342534147
:104AE0000A4AC2F894372846BDE8F0810022B8E7A8
:104AF0004FF08052B5E7034B074A9A65DCE7014B5C
:104B0000064AFAE700300E40DA5F00200000C64394
:104B1000DC5F0020D85F002077402057372110B796
:104B2000F8B506788768416804463046FFF7A0FB71
:104B3000394605463046FFF79BFB0246D6B9237B34
:104B4000617B9B0043EAC103A17B0B430A21B5FBB8
:104B5000F1F043EA005301FB105543EA0543B2FB71
:104B6000F1F043EA003301FB102243EA0222024B38
:104B7000C3F89020F8BD00BF00300E4003289EBF50
:104B8000014BC001195070470012C64300EB4000B2
:104B9000F8B50D461F46040116463AB115480123E3
:104BA0008B402044C7B100F1C0600360072D4FF077
:104BB0000F0114D8AB00104806FA03F299402044C4
:104BC00021F03BFE3EB90B4A0123AB40224477B1B2
:104BD00002F1C0621360F8BD00F18060E5E7A5F165
:104BE00008039B00054806FA03F29940E7E702F143
:104BF0008062EFE70CA0004004A0004008A0004045
:104C000010B5044601214FF48A40FEF745FFB4F881
:104C1000013022785BBA9BB243EA02630B4A13600D
:104C200000231362D36253634FF00043D3664FF007
:104C3000FF339366064A4FF40071C2F88011E3789F
:104C40005B01DBB282F80933116010BD00200E4019
:104C500000E100E0F8B5254D8F7AD1F800C0C3B26D
:104C600001269E404FF0300ECB7A0EFB00500C46D2
:104C70001B05097BAE6643EA0743C0F880C094F881
:104C80000DC0C0F888C043EA415322F00302C0F8C7
:104C90008430C0F8982021F0BEFDEB6E3343EB6604
:104CA000237A13B16B6B33436B63637A13B1EB6A93
:104CB0003343EB6223792A6823B1DB431B0263F49D
:104CC0007F431A4063790BB142EA0322A3790BB107
:104CD00022EA0302E3791343044A1360044B9E6201
:104CE000D663BDE8F84021F09CBD00BF00200E4017
:104CF00000200E4410B5C0B20124844021F08BFD89
:104D0000074B1A6A224208D19B6A9C430CBF0124BC
:104D1000002421F086FD204610BD0024F9E700BFE5
:104D200000200E40054B5A685B68054B41F6713216
:104D30001A649A6822F001029A60704700300E40AF
:104D400000000E40034B9A6822F001029A60002294
:104D50001A64704700000E40094A0A4BD969C90716
:104D600005D512B96FF002007047013AF6E7002A44
:104D7000F8D001221861DA60D86940F380007047EA
:104D80008096980000000E4070B509B9002070BDF3
:104D90000E4A0023082550F8234094610C4CD5603E
:104DA0000133D669F60705D514B96FF00200EEE7B6
:104DB000013CF6E7002CF8D0D469A40702D499424C
:104DC000E9D1E3E76FF00100E1E700BF00000E402A
:104DD000809698002DE9F8431C4B0D4641F6713141
:104DE0001E6C19641A49804648684968996841F000
:104DF0000101B6B2996097084FF00009B94501D397
:104E0000002005E008EB89042046FFF7A5FF48B124
:104E10000E4B9A6822F001029A600EB100221A64C9
:104E2000BDE8F883C4F30A01C1F500618908A7EB66
:104E30000903994228BF19462846FFF7A5FF002815
:104E4000E6D1894405EB8105D8E700BF00000E409C
:104E500000300E40234B41F671311A6C10B51964C5
:104E600021494C684968996841F001019960012124
:104E70001861D960D9694C0792B209D5996821F0B7
:104E8000010199600AB100221A644FF0FF3010BD91
:104E90000221D9601549D869C00700D569B9D86918
:104EA00010F002000BD0996821F0010199600AB15D
:104EB00000221A646FF00100E9E70139EBE741B91C
:104EC000986820F00100986002B119646FF0020048
:104ED000DDE7996821F0010199600AB90020D6E761
:104EE0001864FBE700000E4000300E4080969800EA
:104EF000014B01229A60704700500E40134B144939
:104F0000F0B500225D68134E1046D6F8E8714C6883
:104F10000B687F070BD4B3F5006F06D012D8B3F53A
:104F2000007F02D0B3F5806F01D144F480742B422E
:104F300002D02C4208BF18430132092A01F10801AE
:104F4000E3D1F0BDB3F5803FEEE700BF00500E4067
:104F5000A4B802000040E00F8B784A789B0143EA36
:104F600082030A781343CA7843EA02130A7943EAB0
:104F7000C2234A7943EA02338A79043043EA42433E
:104F80000001014A1350704700200440014B186093
:104F9000704700BF00008442437882789B0043EA58
:104FA000021302781343C27843EA4213027943EAB8
:104FB0000223427943EA0233827943EAC233C27957
:104FC00043EA0243027A43EA4243014A13607047CC
:104FD00000200440034B1A6B9206FCD40122DA62D3
:104FE000704700BF0020044008B50F494AF6E86347
:104FF00000208B6340F2FF7308604860886008619E
:10500000486148620B62FFF7E5FFC86308644864C3
:105010008864C864086548658865C8650866486628
:105020008866C86608BD00BF002004400D4AD2F85B
:10503000E430D2F8E0109B0003F03C03C1F381118F
:105040000B438370D2F8E03003F03F034370D2F893
:10505000E830D2F8EC2003F0F003C2F3031213435C
:105060000370704700FF0FE0044BD3F8E4301B0ED1
:105070000A3303F01F030120984070470081E00FBE
:10508000024BD3F8FC0080B2704700BF0081E00FF4
:10509000024BD3F8FC00C0F3074070470081E00FDB
:1050A00070B5054616461C4619B91448FEF720FE91
:1050B0000146402C1BD003D8DCB1202C1BD070BD86
:1050C000602CFCD1042303FB06F2530803EB4113CD
:1050D000B3FBF2F30A4A203B02EAC3032A6822F038
:1050E00060022A602A6814432C606B61E7E706239C
:1050F000E9E71023E7E70823E5E700BF40410500A3
:10510000F8FF7F0040F6AA63C36041F20502002366
:10511000036042600B4A83604361C36482640A4A4D
:105120000366904243678367C36705D002F58062D8
:10513000904203D0836570470365FBE70365836591
:10514000C3657047F9FF01000000014038B504460F
:1051500022F081FE0FCC044D0FC594E80F0085E8C6
:105160000F00002038BD00BF5414002047F6FF7325
:105170009A42F0B572D0062972D83A4B5B5C022B8A
:105180006ED8394D05EBC304DF00A17815F8333034
:10519000012938BF0121012B13D1E0780025401AE5
:1051A000A84202D80844C0B2F0BD431BA0EB530391
:1051B000666836F913609642CCBF03F1FF301D4696
:1051C000EEE760680028EFD0B0F90040944204DBBD
:1051D000B0F902409442B8BF14468388FF2B04BF45
:1051E000B0F90620B0F908C03D440FBF01260026E3
:1051F000C8224FF0280C131B93FBFCF333446E784A
:105200001BB29E4201DD002B01DA731E1BB201337B
:105210009BB24FF47A7C071D5D1E2DB24FEAC50E7E
:1052200000EBC5059E42EA88AD6814FB025222EAF3
:10523000E27202F15C02B2FBFCF205DD37F833509A
:10524000954203F10103E7D200EB0E0398889042E8
:1052500028BF1046884238BF0846A4E7FF20A3E7CE
:105260000020A1E7ECB802005414002008B504485F
:10527000FFF76CFFBDE80840012022F0EEBD00BF43
:105280009CB902007FB50B4B6A4603F11006154628
:1052900018685968144603C40833B3422246F7D14C
:1052A000002428468DF80140FFF7C4FB204604B0D7
:1052B00070BD00BF54BA020070B5184B86B001AA89
:1052C00003F11006154618685968144603C40833DC
:1052D000B3422246F7D11B882380114BD3F8B42068
:1052E000120316D5A3F500434FF6FF721B889342B5
:1052F00008BF4FF4B4730B48ADF80A30FEF71CFA40
:105300002846FEF719FF3220FEF79EFD002006B06A
:1053100070BDD3F8B830C3F30803ECE764BA0200F9
:105320000081E00FC017530210B50C480C4C6FF011
:105330000403A02113F0800F03F1010207D12344DD
:105340002A2A83F800131346F4D1002010BD03F07D
:105350000F03043B034419761346EBE700ED00E02E
:1053600000E100E0BFF35F8F074B5A6A22F48032FE
:105370005A62D3F8942022F00102C3F89420BFF3BC
:105380004F8FBFF36F8F704700ED00E0F0B5374DE2
:1053900037493848002387B0CDE90333FFF7E2FFF0
:1053A0002C68354B4FF00052C3F89840661CC3F888
:1053B0009C208142314AC3F8A0202E6041D005AB29
:1053C000019304AB0A1A009303AB21F00BFBDDE958
:1053D0000372059BDFF8A8E0072BA2EB01024FF058
:1053E00001018CBF4FEAD30C4FF0200CB2FBFCF252
:1053F00001FA02F2013AD2B2AEEB070EC01BB3FAC9
:1054000083F3BEFBFCFEB0FBFCF08E44814002FA4D
:105410000EF20139C3F11E0311435B0001F0FF01DD
:1054200003F03E0343EA0123134A43F0407343F081
:1054300001130234C2F89860C2F89C70C2F8A03020
:105440002C60BFF35F8F0C4B0522C3F894205A6A7F
:1054500042F480325A62BFF34F8FBFF36F8FBFF3B6
:105460004F8FBFF36F8F07B0F0BD00BF74140020E3
:10547000980800208008002000ED00E039000113AA
:105480009708002070B5002386B01646CDE9033397
:10549000FFF768FF05AB019304AB3246009303AB03
:1054A00021F0A0FA0446DDE90303059A013B072A2F
:1054B0008CBFD60820260D465B1A01213344241ADE
:1054C000B3FBF6F301FA03F3013B013CDBB22D1A07
:1054D0003444B4FBF6F4A140013D0139B5FBF6F5C7
:1054E000AB40194301F0FF01FF292BD0B2FA82F340
:1054F000C3F11E03144D154A2C68C2F898405B0096
:1055000003F03E0343EA012343F0985343F00113B1
:105510000134C2F89C00C2F8A0302C60BFF35F8F4A
:105520000523C2F89430536A43F480335362BFF3C7
:105530004F8FBFF36F8FBFF34F8FBFF36F8F00207D
:1055400006B070BD2820FBE77414002000ED00E0D9
:10555000BFF34F8F0549064BCA6802F4E06213435C
:10556000CB60BFF34F8F00BFFDE700BF00ED00E051
:105570000400FA05054B1A782AB95B78002B0CBF9A
:105580000320022070470120704700BF5D680020A3
:105590000329F8B598BF134B054698BF5C5C0E46CF
:1055A00088BF0024032805D8DFE800F002080B0EAE
:1055B00044F002040C4B1F684FB9F8BD44F00804D6
:1055C000F8E744F02004F5E744F08004F2E77B6854
:1055D0001A68144203D05B683146284698473F68F2
:1055E000EAE700BF76BA0200A414002038B5104DD7
:1055F0002B78ABB10F4C23781BB121F024FA002398
:105600002370002021F020FA0B4C50B100F0C2FAB8
:10561000002320782B700121FFF7BAFF01232370AC
:1056200038BD064B01221A70054B22781A70F7E735
:1056300059680020576800205F6800205A680020E1
:105640005B68002010B521F0DFF8064B1B7804469C
:105650001BB1BDE8104021F0DBB8FFF7C7FF2046C3
:10566000F7E700BF56680020094A137830B10133CC
:105670001370084B1B78012B03D87047013B137044
:105680007047054B1B780BB9FFF7B0BF704700BFE1
:105690005D6800205F6800205A68002070B5144ED5
:1056A00021F0B2F833780546ABB900F0AFFB044601
:1056B00020B1284621F0ACF8204670BDAFF3008041
:1056C0000C4821F05FF800F021FE0B4B1C6000F04D
:1056D00069FC0A4B186000F0DFF921F0B7F9084BBC
:1056E0001860012328463370002421F091F8E3E785
:1056F00060680020A414002078140020A01400206A
:105700007C1400202DE9F843284A0138135C39B194
:10571000274F397801330129135404D8BDE8F883A1
:10572000013B1354FAE7FFF725FF0128044635D85B
:10573000DFF8888021F068F898F80030054613B348
:105740001C4E33781BB9012232701B4A1370DFF8EC
:10575000709099F8003023B121F075F9002389F891
:105760000030284621F054F8012021F06DF921F095
:105770004BF8337805461BB100F00CFA0023337068
:10578000002388F80030284621F042F83878844217
:10579000C4D02146FFF7FCFE3C70BFE70329F5D1DA
:1057A0000228F3D100F042FAF0E700BF5D68002064
:1057B0005F680020566800205A6800205968002061
:1057C0005768002038B521F01FF8094B1B78012BD2
:1057D000054604D821F01CF80024204638BD054BAE
:1057E0001C6800F015FA0444284621F011F8F4E78B
:1057F0005F6800207814002038B54160044621F02D
:1058000003F821460546044820F0BFFF2846BDE8BE
:10581000384020F0FDBF00BFA4140020054B1B68DA
:10582000584300F57420044B00F23F20B0FBF3F026
:10583000704700BFA014002040420F002DE9FF4731
:10584000EFF3108772B6AFF3008021F009FE002855
:1058500071D0714EDFF8E481337823B10020FFF777
:1058600003FF00233370FFF785FE0446002869D04C
:10587000841EE4B2012C6CD9FFF77CFE0128674C32
:10588000DFF8BC91054600F28E802078A84205D052
:1058900099F80030002B00F0B2802570207800F0DD
:1058A000A1F999F8003013B15D4B1B782370AFF369
:1058B000008007B962B6EFF3108772B6594B1A78B9
:1058C00052B100221A70564B20781B78984203D1AF
:1058D00001212170FFF75CFE534800F0D1FA02F07D
:1058E000A3F805460028B7D1DFF8588198F80030B2
:1058F000A3B189F80000DFF8409199F800301BB19E
:1059000021F0A1F889F80050002021F09DF800282E
:1059100079D000F03FF9002388F80030337823B1C4
:105920000020FFF7A1FE0023337020780021FFF74D
:105930002FFE00232370AFF3008007B962B604B0D6
:10594000BDE8F0873378002B96D0FFF78DFE3470DA
:1059500092E703A9002000F0E1FA044600288BD169
:10596000D8F80030039A9A4205D80120FFF77CFE50
:105970000123337080E72D4B1D6800F049F9039B2C
:1059800005449D42F1D200F067F982000399264850
:1059900042F0020292B2CDE900422346244A491B5A
:1059A00021F058F868E7DFF89CA09AF80030CBB9EE
:1059B00021F046F82078854203D099F80030D3B121
:1059C00025709AF80030002B7FF468AF194B1B78D4
:1059D00023B921F037F8184B01221A7001238AF8F5
:1059E00000305BE7207885423FF458AF99F80030EB
:1059F000002B7FF452AF2946FFF7CAFDE0E72946A6
:105A0000FFF7C6FD49E7012000F0ECF807B962B6E0
:105A1000EFF3108772B677E7586800205F680020C0
:105A20005B68002055680020801400207814002056
:105A3000455600005C680020576800207C14002058
:105A40005A6800205968002073B5114E337883429C
:105A500004460ED000230F4DADF8043058B101A814
:105A6000FEF71CFD1E20FFF7D9FE2B681B1A2B60CA
:105A7000347002B070BD022301A88DF80530FEF726
:105A80000DFD1E20FFF7CAFE2B680344EFE700BFA1
:105A900041080020AC14002073B5284C002501A853
:105AA000636A636A8DF80450FEF72CFE2846FFF700
:105AB000CBFFD4F8903003F00403AB42204B14BF6B
:105AC00001222A461A70D4F890301E4CC3F30033DA
:105AD000237005D04FF41670FFF7A0FE1A4B186024
