S02B000066697273745F73746167655F62746C5F6566783332786731342F52656C656173652F6578652F6669EE
S3150FE100000F4880F308880F4800470000D105E10F3C
S3150FE10010D105E10FD105E10FD105E10FD105E10FD2
S3150FE10020D105E10FD105E10FEC05E10FD105E10FA7
S3150FE10030D105E10FD105E10FD105E10FD105E10FB2
S3150FE10040004000208505E10F0348044B834202D0AF
S3150FE10050034B03B118477047140100201401002028
S3150FE10060000000000548064B1B1AD90F01EBA3014F
S3150FE10070491002D0034B03B1184770471401002012
S3150FE10080140100200000000010B5064C237843B997
S3150FE10090FFF7DAFF044B13B10448AFF300800123F6
S3150FE100A0237010BD14010020000000000006E10FCF
S3150FE100B008B5054B1BB105490548AFF30080BDE80F
S3150FE100C00840FFF7CFBF00BF000000001801002076
S3150FE100D00006E10F044B054A9A60D3F8882042F4F3
S3150FE100E07002C3F88820704700ED00E00000E10FD1
S3150FE100F0094A0A4BD969C90705D512B96FF002004A
S3150FE101007047013AF6E7002AF8D001221861DA6062
S3150FE10110D86940F3800070478096980000000E4042
S3150FE1012070B509B9002070BD0E4A0023082550F8B5
S3150FE10130234094610C4CD5600133D669F60705D59A
S3150FE1014014B96FF00200EEE7013CF6E7002CF8D0A8
S3150FE10150D469A40702D49942E9D1E3E76FF001002C
S3150FE10160E1E700BF00000E40809698002DE9F843C5
S3150FE101701C4B0D4641F671311E6C19641A498046C6
S3150FE1018048684968996841F00101B6B299609708E4
S3150FE101904FF00009B94501D3002005E008EB8904CA
S3150FE101A02046FFF7A5FF48B10E4B9A6822F00102F0
S3150FE101B09A600EB100221A64BDE8F883C4F30A010E
S3150FE101C0C1F500618908A7EB0903994228BF1946D2
S3150FE101D02846FFF7A5FF0028E6D1894405EB8105FF
S3150FE101E0D8E700BF00000E4000300E40234B41F62A
S3150FE101F071311A6C10B5196421494C6849689968CF
S3150FE1020041F00101996001211861D960D9694C0763
S3150FE1021092B209D5996821F0010199600AB10022DC
S3150FE102201A644FF0FF3010BD0221D9601549D86924
S3150FE10230C00700D569B9D86910F002000BD09968EB
S3150FE1024021F0010199600AB100221A646FF00100F1
S3150FE10250E9E70139EBE741B9986820F001009860C9
S3150FE1026002B119646FF00200DDE7996821F001012F
S3150FE1027099600AB90020D6E71864FBE700000E4043
S3150FE1028000300E4080969800FFF770BF08B50A4B15
S3150FE102901A680A4B1A600A4B40221A615A685203CE
S3150FE102A0FCD400F07DF80028FBD040F2022000F0EC
S3150FE102B0C9F8002008BD00BF040100200801002095
S3150FE102C000300E4010B5104C104BA36000F0D8F87B
S3150FE102D00F4B5B68B3F5803F09D040F20923984293
S3150FE102E002D0B0F5007F02D100F016F850B9094BF4
S3150FE102F0A3601846016881F3088881F3098840688D
S3150FE103008746FEE710BD00BF00ED00E00000E10FFC
S3150FE1031000500E400008E10F2DE9F041DFF87C8037
S3150FE10320D8F828201069D568836AAB4202D200203B
S3150FE10330BDE8F08105F580429A42F8D95B1BC618F4
S3150FE10340C758144B9F42F2D1F1684FF0FF3200F0DC
S3150FE10350FFF8114B98420446E9D1D8F82838A3F1B2
S3150FE103607E62A2F58432B2F5804F10D21A68BA4294
S3150FE103700DD1B1689A68914209D8D9684FF0FF3229
S3150FE10380284600F0E5F8001B18BF0120D0E7012051
S3150FE10390CEE700BF07B0CD5EE320BBDE0000E10F85
S3150FE103A0F8B5194B9B6AD3E90347BB6A1B1BFD18CB
S3150FE103B02646EA68A318B3421DD83946204600F00F
S3150FE103C092F8B8B1104BD3F82838A3F17E62A2F5B3
S3150FE103D08432B2F5804F14D219680C4A914210D18A
S3150FE103E0D9684FF0FF32204600F0B2F8084BC31A36
S3150FE103F058425841F8BD304600F06EF806F50066F2
S3150FE10400D7E70020F6E700BF0000E10F07B0CD5EAA
S3150FE10410E320BBDE4FF000534AF6C0305B8823F092
S3150FE104200F039BB21B1A5842584170474FF00052C7
S3150FE1043008B51080FFF7EEFF10B94FF20F035380A7
S3150FE1044008BD000008B5FFF7F1FF0A4A136823F468
S3150FE10450E06343F400731360BFF34F8F0649074B15
S3150FE10460CA6802F4E0621343CB60BFF34F8F00BF5C
S3150FE10470FDE700BF00500E4000ED00E00400FA0575
S3150FE104804FF000534FF20F015A888A4201D1188873
S3150FE1049070473AB91B88012B40F2022018BF4FF47F
S3150FE104A0007070474FF40070704707B503469B071E
S3150FE104B053BF6FEA01414FF6FF7343EA01416FEA1A
S3150FE104C011410422019120F003000DEB0201FFF728
S3150FE104D0DBFE03B05DF804FB08B5FFF787FEB0FA64
S3150FE104E080F0400908BDF8B505460E4614460AB92F
S3150FE104F00120F8BD42EA0003DA0701D50020F8E74B
S3150FE10500830721D50988FFF7D0FF0028F6D1023CF2
S3150FE10510032C05F1020506F102060BD924F00307B8
S3150FE105203A4631462846FFF7AFFE0028E6D13E446C
S3150FE105303D44E41B002CDBD031882846FFF7B5FF9D
S3150FE10540B0FA80F04009D4E7032CE7D8F4E70000CE
S3150FE1055010B50A4CD4F8B03043F02003C4F8B030EC
S3150FE10560074B01241C6001449A605C60884201D10B
S3150FE10570D86910BD10F8012B9A61F7E700400E40DC
S3150FE1058000C001400B4880470B4880470B490C4A96
S3150FE105900C4B9A42BEBF51F8040B42F8040BF8E735
S3150FE105A009490A4A00209142BCBF41F8040BFAE718
S3150FE105B0FFF76CFED500E10FC502E10F0406E10F6F
S3150FE105C00401002014010020140100203001002055
S3150FE105D0FEE700BFF8B500BFF8BC08BC9E46704702
S3150FE105E0F8B500BFF8BC08BC9E467047AD1007B022
S3150FE105F00100000000000C010008E10F008000007F
S3090FE106000000000000
S3150FE10604C0EA2101C0EA2101B100E10F8900E10F3E
S7050FE1058580
